{
  "address": "0x8a983B3f05995e982e71630F33c5134340A46391",
  "abi": [
    {
      "inputs": [
        {
          "internalType": "contract ENS",
          "name": "_ens",
          "type": "address"
        },
        {
          "internalType": "contract DNSSEC",
          "name": "_oracle",
          "type": "address"
        },
        {
          "internalType": "string",
          "name": "_gatewayURL",
          "type": "string"
        }
      ],
      "stateMutability": "nonpayable",
      "type": "constructor"
    },
    {
      "inputs": [
        {
          "internalType": "bytes",
          "name": "name",
          "type": "bytes"
        }
      ],
      "name": "CouldNotResolve",
      "type": "error"
    },
    {
      "inputs": [],
      "name": "InvalidOperation",
      "type": "error"
    },
    {
      "inputs": [
        {
          "internalType": "address",
          "name": "sender",
          "type": "address"
        },
        {
          "internalType": "string[]",
          "name": "urls",
          "type": "string[]"
        },
        {
          "internalType": "bytes",
          "name": "callData",
          "type": "bytes"
        },
        {
          "internalType": "bytes4",
          "name": "callbackFunction",
          "type": "bytes4"
        },
        {
          "internalType": "bytes",
          "name": "extraData",
          "type": "bytes"
        }
      ],
      "name": "OffchainLookup",
      "type": "error"
    },
    {
      "inputs": [],
      "name": "ens",
      "outputs": [
        {
          "internalType": "contract ENS",
          "name": "",
          "type": "address"
        }
      ],
      "stateMutability": "view",
      "type": "function"
    },
    {
      "inputs": [],
      "name": "gatewayURL",
      "outputs": [
        {
          "internalType": "string",
          "name": "",
          "type": "string"
        }
      ],
      "stateMutability": "view",
      "type": "function"
    },
    {
      "inputs": [],
      "name": "oracle",
      "outputs": [
        {
          "internalType": "contract DNSSEC",
          "name": "",
          "type": "address"
        }
      ],
      "stateMutability": "view",
      "type": "function"
    },
    {
      "inputs": [
        {
          "internalType": "bytes",
          "name": "name",
          "type": "bytes"
        },
        {
          "internalType": "bytes",
          "name": "data",
          "type": "bytes"
        }
      ],
      "name": "resolve",
      "outputs": [
        {
          "internalType": "bytes",
          "name": "",
          "type": "bytes"
        }
      ],
      "stateMutability": "view",
      "type": "function"
    },
    {
      "inputs": [
        {
          "internalType": "bytes",
          "name": "response",
          "type": "bytes"
        },
        {
          "internalType": "bytes",
          "name": "extraData",
          "type": "bytes"
        }
      ],
      "name": "resolveCallback",
      "outputs": [
        {
          "internalType": "bytes",
          "name": "",
          "type": "bytes"
        }
      ],
      "stateMutability": "view",
      "type": "function"
    },
    {
      "inputs": [
        {
          "internalType": "bytes4",
          "name": "interfaceId",
          "type": "bytes4"
        }
      ],
      "name": "supportsInterface",
      "outputs": [
        {
          "internalType": "bool",
          "name": "",
          "type": "bool"
        }
      ],
      "stateMutability": "pure",
      "type": "function"
    }
  ],
  "transactionHash": "0x092c7645237404ee60ca05977076cd368e35b9947c4d9fcf2418e1ac0c99e508",
  "args": [
    "0x736d184e70a797c08B2CeE91d0C5a4B7Bf9844e7",
    "0xfb3aEFc444F01BEf375450Fb09c2437C939E7535",
    "https://dnssec-oracle.ens.domains/"
  ],
  "numDeployments": 1,
  "solcInputHash": "21c3b06f20cff8f61a96601d65c1b5cb",
  "bytecode": "0x60c06040523480156200001157600080fd5b50604051620023353803806200233583398101604081905262000034916200008e565b6001600160a01b03808416608052821660a05260006200005582826200021d565b50505050620002e9565b6001600160a01b03811681146200007557600080fd5b50565b634e487b7160e01b600052604160045260246000fd5b600080600060608486031215620000a457600080fd5b8351620000b1816200005f565b80935050602080850151620000c6816200005f565b60408601519093506001600160401b0380821115620000e457600080fd5b818701915087601f830112620000f957600080fd5b8151818111156200010e576200010e62000078565b604051601f8201601f19908116603f0116810190838211818310171562000139576200013962000078565b816040528281528a868487010111156200015257600080fd5b600093505b8284101562000176578484018601518185018701529285019262000157565b60008684830101528096505050505050509250925092565b600181811c90821680620001a357607f821691505b602082108103620001c457634e487b7160e01b600052602260045260246000fd5b50919050565b601f8211156200021857600081815260208120601f850160051c81016020861015620001f35750805b601f850160051c820191505b818110156200021457828155600101620001ff565b5050505b505050565b81516001600160401b0381111562000239576200023962000078565b62000251816200024a84546200018e565b84620001ca565b602080601f831160018114620002895760008415620002705750858301515b600019600386901b1c1916600185901b17855562000214565b600085815260208120601f198616915b82811015620002ba5788860151825594840194600190910190840162000299565b5085821015620002d95787850151600019600388901b60f8161c191681555b5050505050600190811b01905550565b60805160a0516120196200031c60003960008181610109015261033201526000818160b501526111e301526120196000f3fe608060405234801561001057600080fd5b50600436106100725760003560e01c80637dc0d1d0116100505780637dc0d1d0146101045780639061b9231461012b578063b4a858011461013e57600080fd5b806301ffc9a7146100775780633f15457f146100b057806352539968146100ef575b600080fd5b61009b6100853660046115ac565b6001600160e01b031916639061b92360e01b1490565b60405190151581526020015b60405180910390f35b6100d77f000000000000000000000000000000000000000000000000000000000000000081565b6040516001600160a01b0390911681526020016100a7565b6100f7610151565b6040516100a79190611619565b6100d77f000000000000000000000000000000000000000000000000000000000000000081565b6100f7610139366004611675565b6101df565b6100f761014c366004611675565b61025c565b6000805461015e906116e1565b80601f016020809104026020016040519081016040528092919081815260200182805461018a906116e1565b80156101d75780601f106101ac576101008083540402835291602001916101d7565b820191906000526020600020905b8154815290600101906020018083116101ba57829003601f168201915b505050505081565b606061025485858080601f01602080910402602001604051908101604052809392919081815260200183838082843760009201919091525050604080516020601f890181900481028201810190925287815292508791508690819084018382808284376000920191909152506106b792505050565b949350505050565b60606000808061026e85870187611809565b919450925090506001600160e01b031981161561031e576000808380602001905181019061029c91906118e6565b91509150610312818686868e8e88306040516020016102bc929190611938565b60408051601f19818403018152908290526102db939291602401611963565b60408051601f198184030181529190526020810180516001600160e01b03166001600160e01b031990931692909217909152610848565b95505050505050610254565b600061032c888a018a6119c5565b905060007f00000000000000000000000000000000000000000000000000000000000000006001600160a01b031663bdf95fef836040518263ffffffff1660e01b815260040161037c9190611ad1565b600060405180830381865afa158015610399573d6000803e3d6000fd5b505050506040513d6000823e601f3d908101601f191682016040526103c19190810190611b56565b50905060006103d08282610916565b90505b8051516020820151101561069b5760006103f58260000151836020015161097d565b90506104018188610998565b15806104165750606082015161ffff16600114155b8061042a5750604082015161ffff16601014155b15610435575061068d565b60008061044f84600001518560a001518660c001516109bd565b90925090506001600160a01b03821615610689576040516301ffc9a760e01b815263477cc53f60e11b60048201526001600160a01b038316906301ffc9a790602401602060405180830381865afa1580156104ae573d6000803e3d6000fd5b505050506040513d601f19601f820116820180604052508101906104d29190611ba6565b1561053157610521828a8a8c8c866040516024016104f293929190611bc8565b60408051601f198184030181529190526020810180516001600160e01b031663477cc53f60e11b179052610848565b9950505050505050505050610254565b6040516301ffc9a760e01b8152639061b92360e01b60048201526001600160a01b038316906301ffc9a790602401602060405180830381865afa15801561057c573d6000803e3d6000fd5b505050506040513d601f19601f820116820180604052508101906105a09190611ba6565b156105ed57610521828a8a8c8c6040516024016105be929190611c01565b60408051601f198184030181529190526020810180516001600160e01b0316639061b92360e01b179052610848565b600080836001600160a01b03168a6040516106089190611c26565b600060405180830381855afa9150503d8060008114610643576040519150601f19603f3d011682016040523d82523d6000602084013e610648565b606091505b50915091508115610665579a506102549950505050505050505050565b8a6040516314d3b60360e11b81526004016106809190611619565b60405180910390fd5b5050505b61069681610b05565b6103d3565b50846040516314d3b60360e11b81526004016106809190611619565b604080516001808252818301909252600091816020015b60608152602001906001900390816106ce579050509050600080546106f2906116e1565b80601f016020809104026020016040519081016040528092919081815260200182805461071e906116e1565b801561076b5780601f106107405761010080835404028352916020019161076b565b820191906000526020600020905b81548152906001019060200180831161074e57829003601f168201915b50505050508160008151811061078357610783611c42565b602002602001018190525030818460106040516024016107a4929190611c58565b60408051601f19818403018152918152602080830180516001600160e01b03167f31b137b90000000000000000000000000000000000000000000000000000000017905290517fb4a85801000000000000000000000000000000000000000000000000000000009161081d918991899160009101611c7e565b60408051601f1981840301815290829052630556f18360e41b82526106809594939291600401611cbe565b60606001600160a01b0385163b6108635761086384846106b7565b600061086f8684610bed565b90503d81156108a5576000610885600083610bfa565b90508080602001905181019061089b9190611d6a565b9350505050610254565b600481106109045760006108bb60006004610bfa565b9050630556f18360e41b6108ce82611d9f565b6001600160e01b031916036109025760006108f360046108ee8186611ded565b610bfa565b9050610900818a8a610c4f565b505b505b61090c610ce0565b5050949350505050565b6109646040518060e001604052806060815260200160008152602001600061ffff168152602001600061ffff168152602001600063ffffffff16815260200160008152602001600081525090565b82815260c0810182905261097781610b05565b92915050565b6060600061098b8484610cea565b9050610254848483610d44565b6000815183511480156109b657506109b68360008460008751610dc6565b9392505050565b6000606060006109ce868686610de9565b9050600581511080610a2357506040805180820190915260058082527f454e5331200000000000000000000000000000000000000000000000000000006020830152610a21918391600091908290610dc6565b155b15610a41575050604080516020810190915260008082529150610afd565b6000610a7e6005808451610a559190611ded565b8491907f2000000000000000000000000000000000000000000000000000000000000000610e33565b90508151811115610ab5576000610a988360058551610ecf565b6040805160208101909152600081529095509350610afd92505050565b6000610ac383600584610ecf565b905080610af5610ad4846001611e00565b6001858751610ae39190611ded565b610aed9190611ded565b869190610d44565b945094505050505b935093915050565b60c08101516020820181905281515111610b1c5750565b6000610b3082600001518360200151610cea565b8260200151610b3f9190611e00565b8251909150610b4e9082610fd9565b61ffff166040830152610b62600282611e00565b8251909150610b719082610fd9565b61ffff166060830152610b85600282611e00565b8251909150610b949082611001565b63ffffffff166080830152610baa600482611e00565b8251909150600090610bbc9083610fd9565b61ffff169050610bcd600283611e00565b60a084018190529150610be08183611e00565b60c0909301929092525050565b60006109b683835a61102b565b60608167ffffffffffffffff811115610c1557610c1561171b565b6040519080825280601f01601f191660200182016040528015610c3f576020820181803683370190505b5090508183602083013e92915050565b600080600080600087806020019051810190610c6b9190611e23565b94509450945094509450866001600160a01b0316856001600160a01b031614610cc0576040517f398d4d3200000000000000000000000000000000000000000000000000000000815260040160405180910390fd5b30848463b4a8580160e01b89858760405160200161081d93929190611c7e565b3d6000803e3d6000fd5b6000815b83518110610cfe57610cfe611f59565b6000610d0a85836110be565b60ff169050610d1a816001611e00565b610d249083611e00565b915080600003610d345750610d3a565b50610cee565b6102548382611ded565b8251606090610d538385611e00565b1115610d5e57600080fd5b60008267ffffffffffffffff811115610d7957610d7961171b565b6040519080825280601f01601f191660200182016040528015610da3576020820181803683370190505b50905060208082019086860101610dbb8282876110e2565b509095945050505050565b6000610dd3848484611138565b610dde878785611138565b149695505050505050565b60606000610df785856110be565b60ff16905082610e078286611e00565b10610e1457610e14611f59565b610e2a610e22856001611e00565b869083610d44565b95945050505050565b6000835b610e418486611e00565b811015610ec257827effffffffffffffffffffffffffffffffffffffffffffffffffffffffffffff1916868281518110610e7d57610e7d611c42565b01602001517fff000000000000000000000000000000000000000000000000000000000000001603610eb0579050610254565b80610eba81611f6f565b915050610e37565b5060001995945050505050565b6000838381518110610ee357610ee3611c42565b6020910101517fff00000000000000000000000000000000000000000000000000000000000000167f3000000000000000000000000000000000000000000000000000000000000000148015610f9b575083610f40846001611e00565b81518110610f5057610f50611c42565b6020910101517fff00000000000000000000000000000000000000000000000000000000000000167f7800000000000000000000000000000000000000000000000000000000000000145b15610fce57600080610fb9610fb1866002611e00565b87908661115c565b915091508015610fcb575090506109b6565b50505b610254848484611198565b8151600090610fe9836002611e00565b1115610ff457600080fd5b50016002015161ffff1690565b8151600090611011836004611e00565b111561101c57600080fd5b50016004015163ffffffff1690565b60006001600160a01b0384163b6110aa5760405162461bcd60e51b815260206004820152602e60248201527f4c6f774c6576656c43616c6c5574696c733a207374617469632063616c6c207460448201527f6f206e6f6e2d636f6e74726163740000000000000000000000000000000000006064820152608401610680565b6000808451602086018786fa949350505050565b60008282815181106110d2576110d2611c42565b016020015160f81c905092915050565b6020811061111a57815183526110f9602084611e00565b9250611106602083611e00565b9150611113602082611ded565b90506110e2565b905182516020929092036101000a6000190180199091169116179052565b82516000906111478385611e00565b111561115257600080fd5b5091016020012090565b600080602861116b8585611ded565b101561117c57506000905080610afd565b60008061118a8787876112f5565b909890975095505050505050565b6000806111a6858585611352565b6040517f0178b8bf000000000000000000000000000000000000000000000000000000008152600481018290529091506000906001600160a01b037f00000000000000000000000000000000000000000000000000000000000000001690630178b8bf90602401602060405180830381865afa15801561122a573d6000803e3d6000fd5b505050506040513d601f19601f8201168201806040525081019061124e9190611f88565b90506001600160a01b038116611269576000925050506109b6565b6040517f3b3b57de000000000000000000000000000000000000000000000000000000008152600481018390526001600160a01b03821690633b3b57de90602401602060405180830381865afa1580156112c7573d6000803e3d6000fd5b505050506040513d601f19601f820116820180604052508101906112eb9190611f88565b9695505050505050565b60008060406113048585611ded565b111561130f57600080fd5b60008061131d878787611405565b9150915080611335575060009250829150610afd9050565b50602001516004858503604003021c915060019050935093915050565b60008061138f848587516113669190611ded565b8791907f2e00000000000000000000000000000000000000000000000000000000000000610e33565b90506000838210156113b7576113b0866113aa846001611e00565b86611352565b90506113bb565b8391505b806113d2866113ca8186611ded565b899190611138565b60408051602081019390935282015260600160405160208183030381529060405280519060200120925050509392505050565b60606000806114148585611ded565b9050611421600282611fbb565b6001036114705760405162461bcd60e51b815260206004820152601560248201527f496e76616c696420737472696e67206c656e67746800000000000000000000006044820152606401610680565b61147b600282611fcf565b67ffffffffffffffff8111156114935761149361171b565b6040519080825280601f01601f1916602001820160405280156114bd576020820181803683370190505b5092506001915085518411156114d257600080fd5b611523565b6000603a8210602f831116156114ef5750602f190190565b6047821060408311161561150557506036190190565b6067821060608311161561151b57506056190190565b5060ff919050565b60208601855b85811015611588576115408183015160001a6114d7565b6115526001830184015160001a6114d7565b60ff811460ff8314171561156b57600095505050611588565b60049190911b178060028984030487016020015350600201611529565b505050935093915050565b6001600160e01b0319811681146115a957600080fd5b50565b6000602082840312156115be57600080fd5b81356109b681611593565b60005b838110156115e45781810151838201526020016115cc565b50506000910152565b600081518084526116058160208601602086016115c9565b601f01601f19169290920160200192915050565b6020815260006109b660208301846115ed565b60008083601f84011261163e57600080fd5b50813567ffffffffffffffff81111561165657600080fd5b60208301915083602082850101111561166e57600080fd5b9250929050565b6000806000806040858703121561168b57600080fd5b843567ffffffffffffffff808211156116a357600080fd5b6116af8883890161162c565b909650945060208701359150808211156116c857600080fd5b506116d58782880161162c565b95989497509550505050565b600181811c908216806116f557607f821691505b60208210810361171557634e487b7160e01b600052602260045260246000fd5b50919050565b634e487b7160e01b600052604160045260246000fd5b6040805190810167ffffffffffffffff811182821017156117545761175461171b565b60405290565b604051601f8201601f1916810167ffffffffffffffff811182821017156117835761178361171b565b604052919050565b600067ffffffffffffffff8211156117a5576117a561171b565b50601f01601f191660200190565b600082601f8301126117c457600080fd5b81356117d76117d28261178b565b61175a565b8181528460208386010111156117ec57600080fd5b816020850160208301376000918101602001919091529392505050565b60008060006060848603121561181e57600080fd5b833567ffffffffffffffff8082111561183657600080fd5b611842878388016117b3565b9450602086013591508082111561185857600080fd5b50611865868287016117b3565b925050604084013561187681611593565b809150509250925092565b600061188f6117d28461178b565b90508281528383830111156118a357600080fd5b6109b68360208301846115c9565b600082601f8301126118c257600080fd5b6109b683835160208501611881565b6001600160a01b03811681146115a957600080fd5b600080604083850312156118f957600080fd5b825167ffffffffffffffff81111561191057600080fd5b61191c858286016118b1565b925050602083015161192d816118d1565b809150509250929050565b60408152600061194b60408301856115ed565b90506001600160a01b03831660208301529392505050565b60408152826040820152828460608301376000606084830101526000601f19601f850116820160608382030160208401526112eb60608201856115ed565b600067ffffffffffffffff8211156119bb576119bb61171b565b5060051b60200190565b600060208083850312156119d857600080fd5b823567ffffffffffffffff808211156119f057600080fd5b818501915085601f830112611a0457600080fd5b8135611a126117d2826119a1565b81815260059190911b83018401908481019088831115611a3157600080fd5b8585015b83811015611ac457803585811115611a4d5760008081fd5b86016040818c03601f1901811315611a655760008081fd5b611a6d611731565b8983013588811115611a7f5760008081fd5b611a8d8e8c838701016117b3565b825250908201359087821115611aa35760008081fd5b611ab18d8b848601016117b3565b818b015285525050918601918601611a35565b5098975050505050505050565b60006020808301818452808551808352604092508286019150828160051b87010184880160005b83811015611b4857888303603f1901855281518051878552611b1c888601826115ed565b91890151858303868b0152919050611b3481836115ed565b968901969450505090860190600101611af8565b509098975050505050505050565b60008060408385031215611b6957600080fd5b825167ffffffffffffffff811115611b8057600080fd5b611b8c858286016118b1565b925050602083015163ffffffff8116811461192d57600080fd5b600060208284031215611bb857600080fd5b815180151581146109b657600080fd5b606081526000611bdb60608301866115ed565b8281036020840152611bed81866115ed565b905082810360408401526112eb81856115ed565b604081526000611c1460408301856115ed565b8281036020840152610e2a81856115ed565b60008251611c388184602087016115c9565b9190910192915050565b634e487b7160e01b600052603260045260246000fd5b604081526000611c6b60408301856115ed565b905061ffff831660208301529392505050565b606081526000611c9160608301866115ed565b8281036020840152611ca381866115ed565b9150506001600160e01b031983166040830152949350505050565b600060a082016001600160a01b0388168352602060a08185015281885180845260c08601915060c08160051b8701019350828a0160005b82811015611d235760bf19888703018452611d118683516115ed565b95509284019290840190600101611cf5565b50505050508281036040840152611d3a81876115ed565b6001600160e01b03198616606085015290508281036080840152611d5e81856115ed565b98975050505050505050565b600060208284031215611d7c57600080fd5b815167ffffffffffffffff811115611d9357600080fd5b610254848285016118b1565b6000815160208301516001600160e01b031980821693506004831015611dcf5780818460040360031b1b83161693505b505050919050565b634e487b7160e01b600052601160045260246000fd5b8181038181111561097757610977611dd7565b8082018082111561097757610977611dd7565b8051611e1e81611593565b919050565b600080600080600060a08688031215611e3b57600080fd5b8551611e46816118d1565b8095505060208087015167ffffffffffffffff80821115611e6657600080fd5b818901915089601f830112611e7a57600080fd5b8151611e886117d2826119a1565b81815260059190911b8301840190848101908c831115611ea757600080fd5b8585015b83811015611ef457805185811115611ec35760008081fd5b8601603f81018f13611ed55760008081fd5b611ee68f8983015160408401611881565b845250918601918601611eab565b5060408c01519099509450505080831115611f0e57600080fd5b611f1a8a848b016118b1565b9550611f2860608a01611e13565b94506080890151925080831115611f3e57600080fd5b5050611f4c888289016118b1565b9150509295509295909350565b634e487b7160e01b600052600160045260246000fd5b600060018201611f8157611f81611dd7565b5060010190565b600060208284031215611f9a57600080fd5b81516109b6816118d1565b634e487b7160e01b600052601260045260246000fd5b600082611fca57611fca611fa5565b500690565b600082611fde57611fde611fa5565b50049056fea26469706673582212208acd6e4513d03f10e17267aa46260cd76e8813bac40637534243fc21571f64be64736f6c63430008110033",
  "devdoc": {
    "kind": "dev",
    "methods": {
      "supportsInterface(bytes4)": {
        "details": "Returns true if this contract implements the interface defined by `interfaceId`. See the corresponding https://eips.ethereum.org/EIPS/eip-165#how-interfaces-are-identified[EIP section] to learn more about how these ids are created. This function call must use less than 30 000 gas."
      }
    },
    "version": 1
  },
  "userdoc": {
    "kind": "user",
    "methods": {},
    "version": 1
  },
  "storageLayout": {
    "storage": [
      {
        "astId": 6155,
        "contract": "contracts/dnsregistrar/OffchainDNSResolver.sol:OffchainDNSResolver",
        "label": "gatewayURL",
        "offset": 0,
        "slot": "0",
        "type": "t_string_storage"
      }
    ],
    "types": {
      "t_string_storage": {
        "encoding": "bytes",
        "label": "string",
        "numberOfBytes": "32"
      }
    }
  }
}