{
  "address": "0x98f440D2C239d5B6a9529D3E9322B689d8ED787B",
  "abi": [
    {
      "inputs": [
        {
          "internalType": "contract IBaseRegistrar",
          "name": "_registrar",
          "type": "address"
        },
        {
          "internalType": "contract INameWrapper",
          "name": "_wrapper",
          "type": "address"
        }
      ],
      "stateMutability": "nonpayable",
      "type": "constructor"
    },
    {
      "inputs": [],
      "name": "MigrationTargetNotSet",
      "type": "error"
    },
    {
      "anonymous": false,
      "inputs": [
        {
          "indexed": true,
          "internalType": "address",
          "name": "controller",
          "type": "address"
        },
        {
          "indexed": false,
          "internalType": "bool",
          "name": "active",
          "type": "bool"
        }
      ],
      "name": "ControllerChanged",
      "type": "event"
    },
    {
      "anonymous": false,
      "inputs": [
        {
          "indexed": true,
          "internalType": "address",
          "name": "target",
          "type": "address"
        }
      ],
      "name": "MigrationTargetUpdated",
      "type": "event"
    },
    {
      "anonymous": false,
      "inputs": [
        {
          "indexed": true,
          "internalType": "address",
          "name": "previousOwner",
          "type": "address"
        },
        {
          "indexed": true,
          "internalType": "address",
          "name": "newOwner",
          "type": "address"
        }
      ],
      "name": "OwnershipTransferred",
      "type": "event"
    },
    {
      "inputs": [
        {
          "internalType": "address",
          "name": "",
          "type": "address"
        }
      ],
      "name": "controllers",
      "outputs": [
        {
          "internalType": "bool",
          "name": "",
          "type": "bool"
        }
      ],
      "stateMutability": "view",
      "type": "function"
    },
    {
      "inputs": [
        {
          "internalType": "address",
          "name": "nameOwner",
          "type": "address"
        },
        {
          "internalType": "uint256[]",
          "name": "tokenIds",
          "type": "uint256[]"
        },
        {
          "internalType": "bytes",
          "name": "data",
          "type": "bytes"
        }
      ],
      "name": "migrateNames",
      "outputs": [],
      "stateMutability": "nonpayable",
      "type": "function"
    },
    {
      "inputs": [
        {
          "internalType": "address",
          "name": "nameOwner",
          "type": "address"
        },
        {
          "internalType": "uint256[]",
          "name": "tokenIds",
          "type": "uint256[]"
        },
        {
          "internalType": "bytes",
          "name": "data",
          "type": "bytes"
        }
      ],
      "name": "migrateWrappedNames",
      "outputs": [],
      "stateMutability": "nonpayable",
      "type": "function"
    },
    {
      "inputs": [],
      "name": "migrationTarget",
      "outputs": [
        {
          "internalType": "address",
          "name": "",
          "type": "address"
        }
      ],
      "stateMutability": "view",
      "type": "function"
    },
    {
      "inputs": [],
      "name": "owner",
      "outputs": [
        {
          "internalType": "address",
          "name": "",
          "type": "address"
        }
      ],
      "stateMutability": "view",
      "type": "function"
    },
    {
      "inputs": [],
      "name": "registrar",
      "outputs": [
        {
          "internalType": "contract IBaseRegistrar",
          "name": "",
          "type": "address"
        }
      ],
      "stateMutability": "view",
      "type": "function"
    },
    {
      "inputs": [],
      "name": "renounceOwnership",
      "outputs": [],
      "stateMutability": "nonpayable",
      "type": "function"
    },
    {
      "inputs": [
        {
          "internalType": "address",
          "name": "controller",
          "type": "address"
        },
        {
          "internalType": "bool",
          "name": "active",
          "type": "bool"
        }
      ],
      "name": "setController",
      "outputs": [],
      "stateMutability": "nonpayable",
      "type": "function"
    },
    {
      "inputs": [
        {
          "internalType": "address",
          "name": "target",
          "type": "address"
        }
      ],
      "name": "setMigrationTarget",
      "outputs": [],
      "stateMutability": "nonpayable",
      "type": "function"
    },
    {
      "inputs": [
        {
          "internalType": "address",
          "name": "newOwner",
          "type": "address"
        }
      ],
      "name": "transferOwnership",
      "outputs": [],
      "stateMutability": "nonpayable",
      "type": "function"
    },
    {
      "inputs": [],
      "name": "wrapper",
      "outputs": [
        {
          "internalType": "contract INameWrapper",
          "name": "",
          "type": "address"
        }
      ],
      "stateMutability": "view",
      "type": "function"
    }
  ],
  "transactionHash": "0xa37c02e1b57dd31a8d4688dad9b7437f65b4e568e91c36f42f45b7b34bbbf5cb",
  "args": [
    "0x52B4f1D826313A3DdD9A3aF5bFb4221ad40170E2",
    "0xF98955FD70b1A2F4cf684F25C0d10680e23640E2"
  ],
  "numDeployments": 1,
  "solcInputHash": "21c3b06f20cff8f61a96601d65c1b5cb",
  "bytecode": "0x60c060405234801561001057600080fd5b50604051610c13380380610c1383398101604081905261002f916100b7565b6100383361004f565b6001600160a01b039182166080521660a0526100f1565b600080546001600160a01b038381166001600160a01b0319831681178455604051919092169283917f8be0079c531659141344cd1fd0a4f28419497f9722a3daafe3b4186f6b6457e09190a35050565b6001600160a01b03811681146100b457600080fd5b50565b600080604083850312156100ca57600080fd5b82516100d58161009f565b60208401519092506100e68161009f565b809150509250929050565b60805160a051610af061012360003960008181610158015261036401526000818160d301526105d70152610af06000f3fe608060405234801561001057600080fd5b50600436106100c95760003560e01c8063ac210cc711610081578063e0dba60f1161005b578063e0dba60f146101c0578063f2fde38b146101d3578063fd1a0bc8146101e657600080fd5b8063ac210cc714610153578063c231bace1461017a578063da8c229e1461018d57600080fd5b8063715018a6116100b2578063715018a6146101255780637e44baf01461012f5780638da5cb5b1461014257600080fd5b80632b20e397146100ce5780635b51acff14610112575b600080fd5b6100f57f000000000000000000000000000000000000000000000000000000000000000081565b6040516001600160a01b0390911681526020015b60405180910390f35b6002546100f5906001600160a01b031681565b61012d6101f9565b005b61012d61013d36600461082a565b61020d565b6000546001600160a01b03166100f5565b6100f57f000000000000000000000000000000000000000000000000000000000000000081565b61012d610188366004610904565b6103da565b6101b061019b366004610904565b60016020526000908152604090205460ff1681565b6040519015158152602001610109565b61012d6101ce366004610926565b610439565b61012d6101e1366004610904565b6104a0565b61012d6101f436600461082a565b610530565b6102016106a0565b61020b60006106fa565b565b3360009081526001602052604090205460ff166102825760405162461bcd60e51b815260206004820152602860248201527f436f6e74726f6c6c61626c653a2043616c6c6572206973206e6f74206120636f604482015267373a3937b63632b960c11b60648201526084015b60405180910390fd5b6002546001600160a01b03166102ab576040516391a8fd0d60e01b815260040160405180910390fd5b6000825167ffffffffffffffff8111156102c7576102c7610773565b6040519080825280602002602001820160405280156102f0578160200160208202803683370190505b50905060005b815181101561033057600182828151811061031357610313610962565b60209081029190910101528061032881610978565b9150506102f6565b506002546040517f2eb2c2d60000000000000000000000000000000000000000000000000000000081526001600160a01b037f0000000000000000000000000000000000000000000000000000000000000000811692632eb2c2d6926103a29289921690889087908990600401610a20565b600060405180830381600087803b1580156103bc57600080fd5b505af11580156103d0573d6000803e3d6000fd5b5050505050505050565b6103e26106a0565b6002805473ffffffffffffffffffffffffffffffffffffffff19166001600160a01b0383169081179091556040517fa32053d7054112a46661fde717dbca218a46aa791a09a7415491932b1a01039290600090a250565b6104416106a0565b6001600160a01b038216600081815260016020908152604091829020805460ff191685151590811790915591519182527f4c97694570a07277810af7e5669ffd5f6a2d6b74b6e9a274b8b870fd5114cf87910160405180910390a25050565b6104a86106a0565b6001600160a01b0381166105245760405162461bcd60e51b815260206004820152602660248201527f4f776e61626c653a206e6577206f776e657220697320746865207a65726f206160448201527f64647265737300000000000000000000000000000000000000000000000000006064820152608401610279565b61052d816106fa565b50565b3360009081526001602052604090205460ff166105a05760405162461bcd60e51b815260206004820152602860248201527f436f6e74726f6c6c61626c653a2043616c6c6572206973206e6f74206120636f604482015267373a3937b63632b960c11b6064820152608401610279565b6002546001600160a01b03166105c9576040516391a8fd0d60e01b815260040160405180910390fd5b60005b825181101561069a577f00000000000000000000000000000000000000000000000000000000000000006001600160a01b031663b88d4fde85600260009054906101000a90046001600160a01b031686858151811061062d5761062d610962565b6020026020010151866040518563ffffffff1660e01b81526004016106559493929190610a7e565b600060405180830381600087803b15801561066f57600080fd5b505af1158015610683573d6000803e3d6000fd5b50505050808061069290610978565b9150506105cc565b50505050565b6000546001600160a01b0316331461020b5760405162461bcd60e51b815260206004820181905260248201527f4f776e61626c653a2063616c6c6572206973206e6f7420746865206f776e65726044820152606401610279565b600080546001600160a01b0383811673ffffffffffffffffffffffffffffffffffffffff19831681178455604051919092169283917f8be0079c531659141344cd1fd0a4f28419497f9722a3daafe3b4186f6b6457e09190a35050565b80356001600160a01b038116811461076e57600080fd5b919050565b634e487b7160e01b600052604160045260246000fd5b604051601f8201601f1916810167ffffffffffffffff811182821017156107b2576107b2610773565b604052919050565b600082601f8301126107cb57600080fd5b813567ffffffffffffffff8111156107e5576107e5610773565b6107f8601f8201601f1916602001610789565b81815284602083860101111561080d57600080fd5b816020850160208301376000918101602001919091529392505050565b60008060006060848603121561083f57600080fd5b61084884610757565b925060208085013567ffffffffffffffff8082111561086657600080fd5b818701915087601f83011261087a57600080fd5b81358181111561088c5761088c610773565b8060051b61089b858201610789565b918252838101850191858101908b8411156108b557600080fd5b948601945b838610156108d3578535825294860194908601906108ba565b975050505060408701359250808311156108ec57600080fd5b50506108fa868287016107ba565b9150509250925092565b60006020828403121561091657600080fd5b61091f82610757565b9392505050565b6000806040838503121561093957600080fd5b61094283610757565b91506020830135801515811461095757600080fd5b809150509250929050565b634e487b7160e01b600052603260045260246000fd5b60006001820161099857634e487b7160e01b600052601160045260246000fd5b5060010190565b600081518084526020808501945080840160005b838110156109cf578151875295820195908201906001016109b3565b509495945050505050565b6000815180845260005b81811015610a00576020818501810151868301820152016109e4565b506000602082860101526020601f19601f83011685010191505092915050565b60006001600160a01b03808816835280871660208401525060a06040830152610a4c60a083018661099f565b8281036060840152610a5e818661099f565b90508281036080840152610a7281856109da565b98975050505050505050565b60006001600160a01b03808716835280861660208401525083604083015260806060830152610ab060808301846109da565b969550505050505056fea26469706673582212203a14bf074dc64a73650a88965bfb2357d0f36765e7ab58bddb1a02a83da5e3b464736f6c63430008110033",
  "devdoc": {
    "kind": "dev",
    "methods": {
      "owner()": {
        "details": "Returns the address of the current owner."
      },
      "renounceOwnership()": {
        "details": "Leaves the contract without owner. It will not be possible to call `onlyOwner` functions. Can only be called by the current owner. NOTE: Renouncing ownership will leave the contract without an owner, thereby disabling any functionality that is only available to the owner."
      },
      "transferOwnership(address)": {
        "details": "Transfers ownership of the contract to a new account (`newOwner`). Can only be called by the current owner."
      }
    },
    "version": 1
  },
  "userdoc": {
    "kind": "user",
    "methods": {},
    "version": 1
  },
  "storageLayout": {
    "storage": [
      {
        "astId": 444,
        "contract": "contracts/utils/MigrationHelper.sol:MigrationHelper",
        "label": "_owner",
        "offset": 0,
        "slot": "0",
        "type": "t_address"
      },
      {
        "astId": 25634,
        "contract": "contracts/utils/MigrationHelper.sol:MigrationHelper",
        "label": "controllers",
        "offset": 0,
        "slot": "1",
        "type": "t_mapping(t_address,t_bool)"
      },
      {
        "astId": 24333,
        "contract": "contracts/utils/MigrationHelper.sol:MigrationHelper",
        "label": "migrationTarget",
        "offset": 0,
        "slot": "2",
        "type": "t_address"
      }
    ],
    "types": {
      "t_address": {
        "encoding": "inplace",
        "label": "address",
        "numberOfBytes": "20"
      },
      "t_bool": {
        "encoding": "inplace",
        "label": "bool",
        "numberOfBytes": "1"
      },
      "t_mapping(t_address,t_bool)": {
        "encoding": "mapping",
        "key": "t_address",
        "label": "mapping(address => bool)",
        "numberOfBytes": "32",
        "value": "t_bool"
      }
    }
  }
}