{
  "address": "0x1B37c3cB3c4E1C9129b64a12EB05D20C96D8E7fA",
  "abi": [
    {
      "inputs": [
        {
          "internalType": "contract ENS",
          "name": "_ens",
          "type": "address"
        },
        {
          "internalType": "contract IBaseRegistrar",
          "name": "_registrar",
          "type": "address"
        }
      ],
      "stateMutability": "nonpayable",
      "type": "constructor"
    },
    {
      "inputs": [
        {
          "internalType": "bytes",
          "name": "dns",
          "type": "bytes"
        }
      ],
      "name": "DNSDecodingFailed",
      "type": "error"
    },
    {
      "anonymous": false,
      "inputs": [
        {
          "indexed": true,
          "internalType": "address",
          "name": "previousOwner",
          "type": "address"
        },
        {
          "indexed": true,
          "internalType": "address",
          "name": "newOwner",
          "type": "address"
        }
      ],
      "name": "OwnershipTransferred",
      "type": "event"
    },
    {
      "inputs": [
        {
          "internalType": "address",
          "name": "",
          "type": "address"
        }
      ],
      "name": "approvedWrapper",
      "outputs": [
        {
          "internalType": "bool",
          "name": "",
          "type": "bool"
        }
      ],
      "stateMutability": "view",
      "type": "function"
    },
    {
      "inputs": [],
      "name": "ens",
      "outputs": [
        {
          "internalType": "contract ENS",
          "name": "",
          "type": "address"
        }
      ],
      "stateMutability": "view",
      "type": "function"
    },
    {
      "inputs": [],
      "name": "owner",
      "outputs": [
        {
          "internalType": "address",
          "name": "",
          "type": "address"
        }
      ],
      "stateMutability": "view",
      "type": "function"
    },
    {
      "inputs": [],
      "name": "registrar",
      "outputs": [
        {
          "internalType": "contract IBaseRegistrar",
          "name": "",
          "type": "address"
        }
      ],
      "stateMutability": "view",
      "type": "function"
    },
    {
      "inputs": [],
      "name": "renounceOwnership",
      "outputs": [],
      "stateMutability": "nonpayable",
      "type": "function"
    },
    {
      "inputs": [
        {
          "internalType": "bytes32",
          "name": "parentNode",
          "type": "bytes32"
        },
        {
          "internalType": "string",
          "name": "label",
          "type": "string"
        },
        {
          "internalType": "address",
          "name": "newOwner",
          "type": "address"
        },
        {
          "internalType": "address",
          "name": "resolver",
          "type": "address"
        },
        {
          "internalType": "uint64",
          "name": "ttl",
          "type": "uint64"
        },
        {
          "internalType": "uint32",
          "name": "fuses",
          "type": "uint32"
        },
        {
          "internalType": "uint64",
          "name": "expiry",
          "type": "uint64"
        }
      ],
      "name": "setSubnodeRecord",
      "outputs": [],
      "stateMutability": "nonpayable",
      "type": "function"
    },
    {
      "inputs": [
        {
          "internalType": "address",
          "name": "wrapper",
          "type": "address"
        },
        {
          "internalType": "bool",
          "name": "approved",
          "type": "bool"
        }
      ],
      "name": "setWrapperApproval",
      "outputs": [],
      "stateMutability": "nonpayable",
      "type": "function"
    },
    {
      "inputs": [
        {
          "internalType": "address",
          "name": "newOwner",
          "type": "address"
        }
      ],
      "name": "transferOwnership",
      "outputs": [],
      "stateMutability": "nonpayable",
      "type": "function"
    },
    {
      "inputs": [
        {
          "internalType": "string",
          "name": "label",
          "type": "string"
        },
        {
          "internalType": "address",
          "name": "wrappedOwner",
          "type": "address"
        },
        {
          "internalType": "uint32",
          "name": "fuses",
          "type": "uint32"
        },
        {
          "internalType": "uint64",
          "name": "expiry",
          "type": "uint64"
        },
        {
          "internalType": "address",
          "name": "resolver",
          "type": "address"
        }
      ],
      "name": "wrapETH2LD",
      "outputs": [],
      "stateMutability": "nonpayable",
      "type": "function"
    },
    {
      "inputs": [
        {
          "internalType": "bytes",
          "name": "name",
          "type": "bytes"
        },
        {
          "internalType": "address",
          "name": "wrappedOwner",
          "type": "address"
        },
        {
          "internalType": "uint32",
          "name": "fuses",
          "type": "uint32"
        },
        {
          "internalType": "uint64",
          "name": "expiry",
          "type": "uint64"
        },
        {
          "internalType": "address",
          "name": "approved",
          "type": "address"
        },
        {
          "internalType": "bytes",
          "name": "extraData",
          "type": "bytes"
        }
      ],
      "name": "wrapFromUpgrade",
      "outputs": [],
      "stateMutability": "nonpayable",
      "type": "function"
    }
  ],
  "transactionHash": "0xb6225e255a54c51369fe78efec38659dc484a4b30e26e5f8656c0eb9a3c72a03",
  "args": [
    "0x4B10A480BDaC6cC27Be0e26F49c4fD3359Abba00",
    "0xE03C133611725147F90f86f581E739BA7e7692E9"
  ],
  "numDeployments": 1,
  "solcInputHash": "a1e1d5b66dfd83a1d0fa11e304175e2f",
  "bytecode": "0x60c060405234801561001057600080fd5b506040516200148e3803806200148e833981016040819052610031916100b9565b61003a33610051565b6001600160a01b039182166080521660a0526100f3565b600080546001600160a01b038381166001600160a01b0319831681178455604051919092169283917f8be0079c531659141344cd1fd0a4f28419497f9722a3daafe3b4186f6b6457e09190a35050565b6001600160a01b03811681146100b657600080fd5b50565b600080604083850312156100cc57600080fd5b82516100d7816100a1565b60208401519092506100e8816100a1565b809150509250929050565b60805160a051611345620001496000396000818160f00152818161099d01528181610a7801528181610b6e0152610c0f015260008181610134015281816104af0152818161058a015261068001526113456000f3fe608060405234801561001057600080fd5b50600436106100be5760003560e01c80638da5cb5b11610076578063c6d6d7c11161005b578063c6d6d7c114610182578063f2fde38b146101b5578063f9547a9e146101c857600080fd5b80638da5cb5b1461015e5780639198c2761461016f57600080fd5b80632b20e397116100a75780632b20e397146100eb5780633f15457f1461012f578063715018a61461015657600080fd5b80630cc17365146100c357806324c1af44146100d8575b600080fd5b6100d66100d1366004610e93565b6101db565b005b6100d66100e6366004610f0e565b61020e565b6101127f000000000000000000000000000000000000000000000000000000000000000081565b6040516001600160a01b0390911681526020015b60405180910390f35b6101127f000000000000000000000000000000000000000000000000000000000000000081565b6100d6610238565b6000546001600160a01b0316610112565b6100d661017d366004611065565b61024c565b6101a5610190366004611120565b60016020526000908152604090205460ff1681565b6040519015158152602001610126565b6100d66101c3366004611120565b610335565b6100d66101d6366004611144565b6103ca565b6101e36103f4565b6001600160a01b03919091166000908152600160205260409020805460ff1916911515919091179055565b600061022188888051906020012061044e565b905061022e81873361047d565b5050505050505050565b6102406103f4565b61024a60006106d8565b565b60008061028e8a8a8080601f01602080910402602001604051908101604052809392919081815260200183838082843760009201829052509250610740915050565b9150915060006102d58b8b8080601f01602080910402602001604051908101604052809392919081815260200183838082843760009201919091525086925061090a915050565b905060006102e3828561044e565b90507f8ac29740f863baaa5e7f7859fc73ae6c0c5f2039527b4a0d6b173d3335a1dd5a820161031c57610317848b33610969565b610327565b610327818b3361047d565b505050505050505050505050565b61033d6103f4565b6001600160a01b0381166103be5760405162461bcd60e51b815260206004820152602660248201527f4f776e61626c653a206e6577206f776e657220697320746865207a65726f206160448201527f646472657373000000000000000000000000000000000000000000000000000060648201526084015b60405180910390fd5b6103c7816106d8565b50565b6103ec86866040516103dd9291906111ce565b60405180910390208533610969565b505050505050565b6000546001600160a01b0316331461024a5760405162461bcd60e51b815260206004820181905260248201527f4f776e61626c653a2063616c6c6572206973206e6f7420746865206f776e657260448201526064016103b5565b604080516020808201859052818301849052825180830384018152606090920190925280519101205b92915050565b6040517f02571be3000000000000000000000000000000000000000000000000000000008152600481018490526000907f00000000000000000000000000000000000000000000000000000000000000006001600160a01b0316906302571be390602401602060405180830381865afa1580156104fe573d6000803e3d6000fd5b505050506040513d601f19601f8201168201806040525081019061052291906111de565b6001600160a01b03831660009081526001602052604090205490915060ff16801561055e5750816001600160a01b0316816001600160a01b0316145b80156105f5575060405163e985e9c560e01b81526001600160a01b0382811660048301523060248301527f0000000000000000000000000000000000000000000000000000000000000000169063e985e9c590604401602060405180830381865afa1580156105d1573d6000803e3d6000fd5b505050506040513d601f19601f820116820180604052508101906105f591906111fb565b6106415760405162461bcd60e51b815260206004820152600c60248201527f556e617574686f7269736564000000000000000000000000000000000000000060448201526064016103b5565b6040517f5b0fc9c3000000000000000000000000000000000000000000000000000000008152600481018590526001600160a01b0384811660248301527f00000000000000000000000000000000000000000000000000000000000000001690635b0fc9c390604401600060405180830381600087803b1580156106c457600080fd5b505af115801561022e573d6000803e3d6000fd5b600080546001600160a01b038381167fffffffffffffffffffffffff0000000000000000000000000000000000000000831681178455604051919092169283917f8be0079c531659141344cd1fd0a4f28419497f9722a3daafe3b4186f6b6457e09190a35050565b60008083518310610766578360405163ba4adc2360e01b81526004016103b59190611218565b600084846107738161127c565b95508151811061078557610785611295565b016020015160f81c905061079981856112ab565b915084518211156107bf578460405163ba4adc2360e01b81526004016103b59190611218565b80604214801561082757508484815181106107dc576107dc611295565b6020910101517fff00000000000000000000000000000000000000000000000000000000000000167f5b00000000000000000000000000000000000000000000000000000000000000145b801561089557508461083a6001846112be565b8151811061084a5761084a611295565b6020910101517fff00000000000000000000000000000000000000000000000000000000000000167f5d00000000000000000000000000000000000000000000000000000000000000145b156108f15760006108bb866108ab8760016112ab565b6108b66001876112be565b610c74565b90945090508015806108cb575083155b156108eb578560405163ba4adc2360e01b81526004016103b59190611218565b50610902565b801561090257806020858701012092505b509250929050565b60006109168383610740565b92509050806109475782518214610942578260405163ba4adc2360e01b81526004016103b59190611218565b610477565b6000610953848461090a565b6000908152602092909252506040902092915050565b6040517f6352211e0000000000000000000000000000000000000000000000000000000081526004810184905283906000907f00000000000000000000000000000000000000000000000000000000000000006001600160a01b031690636352211e90602401602060405180830381865afa1580156109ec573d6000803e3d6000fd5b505050506040513d601f19601f82011682018060405250810190610a1091906111de565b6001600160a01b03841660009081526001602052604090205490915060ff168015610a4c5750806001600160a01b0316836001600160a01b0316145b8015610ae3575060405163e985e9c560e01b81526001600160a01b0382811660048301523060248301527f0000000000000000000000000000000000000000000000000000000000000000169063e985e9c590604401602060405180830381865afa158015610abf573d6000803e3d6000fd5b505050506040513d601f19601f82011682018060405250810190610ae391906111fb565b610b2f5760405162461bcd60e51b815260206004820152600c60248201527f556e617574686f7269736564000000000000000000000000000000000000000060448201526064016103b5565b6040517f28ed4f6c000000000000000000000000000000000000000000000000000000008152600481018390526001600160a01b0385811660248301527f000000000000000000000000000000000000000000000000000000000000000016906328ed4f6c90604401600060405180830381600087803b158015610bb257600080fd5b505af1158015610bc6573d6000803e3d6000fd5b50506040517f23b872dd0000000000000000000000000000000000000000000000000000000081526001600160a01b0384811660048301528781166024830152604482018690527f00000000000000000000000000000000000000000000000000000000000000001692506323b872dd9150606401600060405180830381600087803b158015610c5557600080fd5b505af1158015610c69573d6000803e3d6000fd5b505050505050505050565b6000806040610c8385856112be565b1115610c8e57600080fd5b600080610c9c878787610cd2565b9150915080610cb4575060009250829150610cca9050565b50602001516004858503604003021c9150600190505b935093915050565b6060600080610ce185856112be565b9050610cee6002826112e7565b600103610d3d5760405162461bcd60e51b815260206004820152601560248201527f496e76616c696420737472696e67206c656e677468000000000000000000000060448201526064016103b5565b610d486002826112fb565b67ffffffffffffffff811115610d6057610d60610ecc565b6040519080825280601f01601f191660200182016040528015610d8a576020820181803683370190505b509250600191508551841115610d9f57600080fd5b610df0565b6000603a8210602f83111615610dbc5750602f190190565b60478210604083111615610dd257506036190190565b60678210606083111615610de857506056190190565b5060ff919050565b60208601855b85811015610e5557610e0d8183015160001a610da4565b610e1f6001830184015160001a610da4565b60ff811460ff83141715610e3857600095505050610e55565b60049190911b178060028984030487016020015350600201610df6565b505050935093915050565b6001600160a01b03811681146103c757600080fd5b8035610e8081610e60565b919050565b80151581146103c757600080fd5b60008060408385031215610ea657600080fd5b8235610eb181610e60565b91506020830135610ec181610e85565b809150509250929050565b634e487b7160e01b600052604160045260246000fd5b803567ffffffffffffffff81168114610e8057600080fd5b803563ffffffff81168114610e8057600080fd5b600080600080600080600060e0888a031215610f2957600080fd5b87359650602088013567ffffffffffffffff80821115610f4857600080fd5b818a0191508a601f830112610f5c57600080fd5b813581811115610f6e57610f6e610ecc565b604051601f8201601f19908116603f01168101908382118183101715610f9657610f96610ecc565b816040528281528d6020848701011115610faf57600080fd5b82602086016020830137600060208483010152809a505050505050610fd660408901610e75565b9450610fe460608901610e75565b9350610ff260808901610ee2565b925061100060a08901610efa565b915061100e60c08901610ee2565b905092959891949750929550565b60008083601f84011261102e57600080fd5b50813567ffffffffffffffff81111561104657600080fd5b60208301915083602082850101111561105e57600080fd5b9250929050565b60008060008060008060008060c0898b03121561108157600080fd5b883567ffffffffffffffff8082111561109957600080fd5b6110a58c838d0161101c565b909a50985060208b013591506110ba82610e60565b8197506110c960408c01610efa565b96506110d760608c01610ee2565b955060808b013591506110e982610e60565b90935060a08a013590808211156110ff57600080fd5b5061110c8b828c0161101c565b999c989b5096995094979396929594505050565b60006020828403121561113257600080fd5b813561113d81610e60565b9392505050565b60008060008060008060a0878903121561115d57600080fd5b863567ffffffffffffffff81111561117457600080fd5b61118089828a0161101c565b909750955050602087013561119481610e60565b93506111a260408801610efa565b92506111b060608801610ee2565b915060808701356111c081610e60565b809150509295509295509295565b8183823760009101908152919050565b6000602082840312156111f057600080fd5b815161113d81610e60565b60006020828403121561120d57600080fd5b815161113d81610e85565b600060208083528351808285015260005b8181101561124557858101830151858201604001528201611229565b506000604082860101526040601f19601f8301168501019250505092915050565b634e487b7160e01b600052601160045260246000fd5b60006001820161128e5761128e611266565b5060010190565b634e487b7160e01b600052603260045260246000fd5b8082018082111561047757610477611266565b8181038181111561047757610477611266565b634e487b7160e01b600052601260045260246000fd5b6000826112f6576112f66112d1565b500690565b60008261130a5761130a6112d1565b50049056fea264697066735822122087f35a980f4feca378c0cc0b20f8e7250f2f5671ef2a955df890d0f73ad85e0764736f6c63430008110033",
  "devdoc": {
    "errors": {
      "DNSDecodingFailed(bytes)": [
        {
          "details": "The DNS-encoded name is malformed."
        }
      ]
    },
    "kind": "dev",
    "methods": {
      "owner()": {
        "details": "Returns the address of the current owner."
      },
      "renounceOwnership()": {
        "details": "Leaves the contract without owner. It will not be possible to call `onlyOwner` functions. Can only be called by the current owner. NOTE: Renouncing ownership will leave the contract without an owner, thereby disabling any functionality that is only available to the owner."
      },
      "transferOwnership(address)": {
        "details": "Transfers ownership of the contract to a new account (`newOwner`). Can only be called by the current owner."
      }
    },
    "version": 1
  },
  "userdoc": {
    "kind": "user",
    "methods": {},
    "version": 1
  },
  "storageLayout": {
    "storage": [
      {
        "astId": 444,
        "contract": "contracts/wrapper/mocks/TestUnwrap.sol:TestUnwrap",
        "label": "_owner",
        "offset": 0,
        "slot": "0",
        "type": "t_address"
      },
      {
        "astId": 29993,
        "contract": "contracts/wrapper/mocks/TestUnwrap.sol:TestUnwrap",
        "label": "approvedWrapper",
        "offset": 0,
        "slot": "1",
        "type": "t_mapping(t_address,t_bool)"
      }
    ],
    "types": {
      "t_address": {
        "encoding": "inplace",
        "label": "address",
        "numberOfBytes": "20"
      },
      "t_bool": {
        "encoding": "inplace",
        "label": "bool",
        "numberOfBytes": "1"
      },
      "t_mapping(t_address,t_bool)": {
        "encoding": "mapping",
        "key": "t_address",
        "label": "mapping(address => bool)",
        "numberOfBytes": "32",
        "value": "t_bool"
      }
    }
  }
}