{
  "address": "0x961D756545D36fA862B3c45b20c49a967122650D",
  "abi": [
    {
      "inputs": [
        {
          "internalType": "bytes",
          "name": "addr",
          "type": "bytes"
        }
      ],
      "name": "InvalidAddressFormat",
      "type": "error"
    },
    {
      "inputs": [],
      "name": "NotImplemented",
      "type": "error"
    },
    {
      "inputs": [
        {
          "internalType": "bytes",
          "name": "",
          "type": "bytes"
        },
        {
          "internalType": "bytes",
          "name": "data",
          "type": "bytes"
        },
        {
          "internalType": "bytes",
          "name": "context",
          "type": "bytes"
        }
      ],
      "name": "resolve",
      "outputs": [
        {
          "internalType": "bytes",
          "name": "",
          "type": "bytes"
        }
      ],
      "stateMutability": "pure",
      "type": "function"
    },
    {
      "inputs": [
        {
          "internalType": "bytes4",
          "name": "interfaceId",
          "type": "bytes4"
        }
      ],
      "name": "supportsInterface",
      "outputs": [
        {
          "internalType": "bool",
          "name": "",
          "type": "bool"
        }
      ],
      "stateMutability": "view",
      "type": "function"
    }
  ],
  "transactionHash": "0x2f63232a282ea24bfca96e6ca5f512a7f816134c5b0e3b3e805c85dcff7d44bf",
  "args": [],
  "numDeployments": 1,
  "solcInputHash": "a1e1d5b66dfd83a1d0fa11e304175e2f",
  "bytecode": "0x608060405234801561001057600080fd5b5061146e806100206000396000f3fe608060405234801561001057600080fd5b50600436106100365760003560e01c806301ffc9a71461003b5780638ef98a7e1461008d575b600080fd5b610078610049366004610fe7565b6001600160e01b0319167f8ef98a7e000000000000000000000000000000000000000000000000000000001490565b60405190151581526020015b60405180910390f35b6100a061009b366004611061565b6100ad565b604051610084919061111f565b606060006100bb8587611152565b90507fc4c4a822000000000000000000000000000000000000000000000000000000006001600160e01b0319821601610100576100f884846101b6565b9150506101ac565b7f0e3481fa000000000000000000000000000000000000000000000000000000006001600160e01b031982160161013d576100f8868686866102c3565b7fa62e2bc4000000000000000000000000000000000000000000000000000000006001600160e01b031982160161017a576100f88686868661044f565b6040517fd623472500000000000000000000000000000000000000000000000000000000815260040160405180910390fd5b9695505050505050565b6060600061022e84848080601f0160208091040260200160405190810160405280939291908181526020018383808284376000920191909152505060408051808201909152600681527f615b36305d3d0000000000000000000000000000000000000000000000000000602082015291506104ea9050565b905080516000036102405790506102bd565b60008061025a6002845185610b039092919063ffffffff16565b91509150806102875782604051630f79e00960e21b815260040161027e919061111f565b60405180910390fd5b6040805173ffffffffffffffffffffffffffffffffffffffff841660208201520160405160208183030381529060405293505050505b92915050565b606060006102d48560048189611182565b8101906102e191906111ac565b9150506060816380000000166000146103685761036185858080601f01602080910402602001604051908101604052809392919081815260200183838082843760009201919091525061033d92505050637fffffff8516610b41565b60405160200161034d91906111ce565b6040516020818303038152906040526104ea565b90506103c0565b6103bd85858080601f0160208091040260200160405190810160405280939291908181526020018383808284376000920191909152506103ad9250869150610b419050565b60405160200161034d919061121f565b90505b80516000036103d25791506104479050565b6000806103ec6002845185610b039092919063ffffffff16565b91509150806104105782604051630f79e00960e21b815260040161027e919061111f565b6040805173ffffffffffffffffffffffffffffffffffffffff84166020820152016040516020818303038152906040529450505050505b949350505050565b606060006104608560048189611182565b81019061046d9190611286565b91505060006104bc85858080601f0160208091040260200160405190810160405280939291908181526020018383808284376000920191909152505060405161034d9250869150602001611341565b9050806040516020016104cf919061111f565b60405160208183030381529060405292505050949350505050565b8151606090600090815b81811015610aea578261053a57845161051590879083908890600090610be1565b15610531578451610526908261138f565b9050600392506104f4565b600192506104f4565b600183036105f9575b818110156105f45785818151811061055d5761055d6113a2565b01602001516001600160f81b031916603d60f81b0361058c576006925061058560018261138f565b90506104f4565b85818151811061059e5761059e6113a2565b01602001516001600160f81b0319167f5b00000000000000000000000000000000000000000000000000000000000000036105e2576002925061058560018261138f565b806105ec816113b8565b915050610543565b6104f4565b600283036106aa575b818110156105f45785818151811061061c5761061c6113a2565b01602001516001600160f81b0319167f5d0000000000000000000000000000000000000000000000000000000000000003610698576006925061066060018261138f565b9050858181518110610674576106746113a2565b01602001516001600160f81b031916603d60f81b036105f45761058560018261138f565b806106a2816113b8565b915050610602565b600383036106f5578581815181106106c4576106c46113a2565b01602001516001600160f81b031916602760f81b036106ec576004925061058560018261138f565b600592506104f4565b6004830361089a57806000805b8484101561089257801561079157888481518110610722576107226113a2565b01602001516001600160f81b0319168961073c848661138f565b8151811061074c5761074c6113a2565b60200101907effffffffffffffffffffffffffffffffffffffffffffffffffffffffffffff1916908160001a90535061078660018361138f565b915060009050610880565b8884815181106107a3576107a36113a2565b01602001516001600160f81b031916601760fa1b036107c457506001610880565b8884815181106107d6576107d66113a2565b01602001516001600160f81b031916602760f81b03610807576107fa898484610c04565b96505050505050506102bd565b888481518110610819576108196113a2565b01602001516001600160f81b03191689610833848661138f565b81518110610843576108436113a2565b60200101907effffffffffffffffffffffffffffffffffffffffffffffffffffffffffffff1916908160001a90535061087d60018361138f565b91505b8361088a816113b8565b945050610702565b5050506104f4565b6005830361091857805b8282101561090a578682815181106108be576108be6113a2565b01602001516001600160f81b031916600160fd1b036108f8576108ed816108e581856113d1565b899190610c04565b9450505050506102bd565b81610902816113b8565b9250506108a4565b6108ed816108e581866113d1565b6006830361096357858181518110610932576109326113a2565b01602001516001600160f81b031916602760f81b0361095a576007925061058560018261138f565b600892506104f4565b60078303610a4e5760005b82821015610a4857801561098457506000610a36565b868281518110610996576109966113a2565b01602001516001600160f81b031916601760fa1b036109b757506001610a36565b8682815181106109c9576109c96113a2565b01602001516001600160f81b031916602760f81b03610a36576109ed60018361138f565b91505b868281518110610a0257610a026113a2565b01602001516001600160f81b031916600160fd1b03610a2d57610a2660018361138f565b91506109f0565b60009350610a48565b81610a40816113b8565b92505061096e565b506104f4565b60088314610a5e57610a5e6113e4565b818110156105f457858181518110610a7857610a786113a2565b01602001516001600160f81b031916600160fd1b03610ad8575b858181518110610aa457610aa46113a2565b01602001516001600160f81b031916600160fd1b03610acf57610ac860018261138f565b9050610a92565b600092506104f4565b80610ae2816113b8565b915050610a5e565b5050604080516020810190915260008152949350505050565b6000806028610b1285856113d1565b1015610b2357506000905080610b39565b600080610b31878787610c86565b909450925050505b935093915050565b60606000610b4e83610ce3565b600101905060008167ffffffffffffffff811115610b6e57610b6e611270565b6040519080825280601f01601f191660200182016040528015610b98576020820181803683370190505b5090508181016020015b600019017f3031323334353637383961626364656600000000000000000000000000000000600a86061a8153600a8504945084610ba257509392505050565b6000610bee848484610dc5565b610bf9878785610dc5565b149695505050505050565b8251606090610c13838561138f565b1115610c1e57600080fd5b60008267ffffffffffffffff811115610c3957610c39611270565b6040519080825280601f01601f191660200182016040528015610c63576020820181803683370190505b50905060208082019086860101610c7b828287610de9565b509095945050505050565b6000806040610c9585856113d1565b1115610ca057600080fd5b600080610cae878787610e3f565b9150915080610cc6575060009250829150610b399050565b50602001516004858503604003021c915060019050935093915050565b6000807a184f03e93ff9f4daa797ed6e38ed64bf6a1f0100000000000000008310610d2c577a184f03e93ff9f4daa797ed6e38ed64bf6a1f010000000000000000830492506040015b6d04ee2d6d415b85acef81000000008310610d58576d04ee2d6d415b85acef8100000000830492506020015b662386f26fc100008310610d7657662386f26fc10000830492506010015b6305f5e1008310610d8e576305f5e100830492506008015b6127108310610da257612710830492506004015b60648310610db4576064830492506002015b600a83106102bd5760010192915050565b8251600090610dd4838561138f565b1115610ddf57600080fd5b5091016020012090565b60208110610e215781518352610e0060208461138f565b9250610e0d60208361138f565b9150610e1a6020826113d1565b9050610de9565b905182516020929092036101000a6000190180199091169116179052565b6060600080610e4e85856113d1565b9050610e5b600282611410565b600103610ec4576040517f08c379a000000000000000000000000000000000000000000000000000000000815260206004820152601560248201527f496e76616c696420737472696e67206c656e6774680000000000000000000000604482015260640161027e565b610ecf600282611424565b67ffffffffffffffff811115610ee757610ee7611270565b6040519080825280601f01601f191660200182016040528015610f11576020820181803683370190505b509250600191508551841115610f2657600080fd5b610f77565b6000603a8210602f83111615610f435750602f190190565b60478210604083111615610f5957506036190190565b60678210606083111615610f6f57506056190190565b5060ff919050565b60208601855b85811015610fdc57610f948183015160001a610f2b565b610fa66001830184015160001a610f2b565b60ff811460ff83141715610fbf57600095505050610fdc565b60049190911b178060028984030487016020015350600201610f7d565b505050935093915050565b600060208284031215610ff957600080fd5b81356001600160e01b03198116811461101157600080fd5b9392505050565b60008083601f84011261102a57600080fd5b50813567ffffffffffffffff81111561104257600080fd5b60208301915083602082850101111561105a57600080fd5b9250929050565b6000806000806000806060878903121561107a57600080fd5b863567ffffffffffffffff8082111561109257600080fd5b61109e8a838b01611018565b909850965060208901359150808211156110b757600080fd5b6110c38a838b01611018565b909650945060408901359150808211156110dc57600080fd5b506110e989828a01611018565b979a9699509497509295939492505050565b60005b838110156111165781810151838201526020016110fe565b50506000910152565b602081526000825180602084015261113e8160408501602087016110fb565b601f01601f19169190910160400192915050565b6001600160e01b0319813581811691600485101561117a5780818660040360031b1b83161692505b505092915050565b6000808585111561119257600080fd5b8386111561119f57600080fd5b5050820193919092039150565b600080604083850312156111bf57600080fd5b50508035926020909101359150565b7f615b6500000000000000000000000000000000000000000000000000000000008152600082516112068160038501602087016110fb565b615d3d60f01b6003939091019283015250600501919050565b7f615b0000000000000000000000000000000000000000000000000000000000008152600082516112578160028501602087016110fb565b615d3d60f01b6002939091019283015250600401919050565b634e487b7160e01b600052604160045260246000fd5b6000806040838503121561129957600080fd5b82359150602083013567ffffffffffffffff808211156112b857600080fd5b818501915085601f8301126112cc57600080fd5b8135818111156112de576112de611270565b604051601f8201601f19908116603f0116810190838211818310171561130657611306611270565b8160405282815288602084870101111561131f57600080fd5b8260208601602083013760006020848301015280955050505050509250929050565b7f745b0000000000000000000000000000000000000000000000000000000000008152600082516112578160028501602087016110fb565b634e487b7160e01b600052601160045260246000fd5b808201808211156102bd576102bd611379565b634e487b7160e01b600052603260045260246000fd5b6000600182016113ca576113ca611379565b5060010190565b818103818111156102bd576102bd611379565b634e487b7160e01b600052600160045260246000fd5b634e487b7160e01b600052601260045260246000fd5b60008261141f5761141f6113fa565b500690565b600082611433576114336113fa565b50049056fea2646970667358221220aa535541b2a0a0c839ad95faffa9e4007dc301d94fa0e1840731936bbd43d5f864736f6c63430008110033",
  "devdoc": {
    "details": "Resolves names on ENS by interpreting record data stored in a DNS TXT record.      This resolver implements the IExtendedDNSResolver interface, meaning that when      a DNS name specifies it as the resolver via a TXT record, this resolver's      resolve() method is invoked, and is passed any additional information from that      text record. This resolver implements a simple text parser allowing a variety      of records to be specified in text, which will then be used to resolve the name      in ENS.      To use this, set a TXT record on your DNS name in the following format:          ENS1 <address or name of ExtendedDNSResolver> <record data>      For example:          ENS1 2.dnsname.ens.eth a[60]=0x1234...      The record data consists of a series of key=value pairs, separated by spaces. Keys      may have an optional argument in square brackets, and values may be either unquoted       - in which case they may not contain spaces - or single-quoted. Single quotes in      a quoted value may be backslash-escaped.                                                                                         \" \"                                                                                                                                ^key\"[\"arg\"]\"\"=\"\"'\"quoted_value\"'\"$                                                                                                                                      unquoted_value                                                                      Record types:       - a[<coinType>] - Specifies how an `addr()` request should be resolved for the specified         `coinType`. Ethereum has `coinType` 60. The value must be 0x-prefixed hexadecimal, and will         be returned unmodified; this means that non-EVM addresses will need to be translated         into binary format and then encoded in hex.         Examples:          - a[60]=0xFe89cc7aBB2C4183683ab71653C4cdc9B02D44b7          - a[0]=0x00149010587f8364b964fcaa70687216b53bd2cbd798       - a[e<chainId>] - Specifies how an `addr()` request should be resolved for the specified         `chainId`. The value must be 0x-prefixed hexadecimal. When encoding an address for an         EVM-based cryptocurrency that uses a chainId instead of a coinType, this syntax *must*         be used in place of the coin type - eg, Optimism is `a[e10]`, not `a[2147483658]`.         A list of supported cryptocurrencies for both syntaxes can be found here:           https://github.com/ensdomains/address-encoder/blob/master/docs/supported-cryptocurrencies.md         Example:          - a[e10]=0xFe89cc7aBB2C4183683ab71653C4cdc9B02D44b7       - t[<key>] - Specifies how a `text()` request should be resolved for the specified `key`.         Examples:          - t[com.twitter]=nicksdjohnson          - t[url]='https://ens.domains/'          - t[note]='I\\'m great'",
    "kind": "dev",
    "methods": {
      "supportsInterface(bytes4)": {
        "details": "Returns true if this contract implements the interface defined by `interfaceId`. See the corresponding https://eips.ethereum.org/EIPS/eip-165#how-interfaces-are-identified[EIP section] to learn more about how these ids are created. This function call must use less than 30 000 gas."
      }
    },
    "version": 1
  },
  "userdoc": {
    "kind": "user",
    "methods": {},
    "version": 1
  },
  "storageLayout": {
    "storage": [],
    "types": null
  }
}