{
  "address": "0xe5Ae1d87D2D14E4758eBE645FD055Aac91996c34",
  "abi": [
    {
      "inputs": [
        {
          "internalType": "contract ENS",
          "name": "ens",
          "type": "address"
        },
        {
          "internalType": "string[]",
          "name": "gateways",
          "type": "string[]"
        }
      ],
      "stateMutability": "nonpayable",
      "type": "constructor"
    },
    {
      "inputs": [
        {
          "internalType": "bytes",
          "name": "dns",
          "type": "bytes"
        }
      ],
      "name": "DNSDecodingFailed",
      "type": "error"
    },
    {
      "inputs": [
        {
          "internalType": "string",
          "name": "ens",
          "type": "string"
        }
      ],
      "name": "DNSEncodingFailed",
      "type": "error"
    },
    {
      "inputs": [],
      "name": "EmptyAddress",
      "type": "error"
    },
    {
      "inputs": [
        {
          "internalType": "uint16",
          "name": "status",
          "type": "uint16"
        },
        {
          "internalType": "string",
          "name": "message",
          "type": "string"
        }
      ],
      "name": "HttpError",
      "type": "error"
    },
    {
      "inputs": [],
      "name": "InvalidBatchGatewayResponse",
      "type": "error"
    },
    {
      "inputs": [
        {
          "internalType": "address",
          "name": "sender",
          "type": "address"
        },
        {
          "internalType": "string[]",
          "name": "urls",
          "type": "string[]"
        },
        {
          "internalType": "bytes",
          "name": "callData",
          "type": "bytes"
        },
        {
          "internalType": "bytes4",
          "name": "callbackFunction",
          "type": "bytes4"
        },
        {
          "internalType": "bytes",
          "name": "extraData",
          "type": "bytes"
        }
      ],
      "name": "OffchainLookup",
      "type": "error"
    },
    {
      "inputs": [
        {
          "internalType": "bytes",
          "name": "errorData",
          "type": "bytes"
        }
      ],
      "name": "ResolverError",
      "type": "error"
    },
    {
      "inputs": [
        {
          "internalType": "bytes",
          "name": "name",
          "type": "bytes"
        },
        {
          "internalType": "address",
          "name": "resolver",
          "type": "address"
        }
      ],
      "name": "ResolverNotContract",
      "type": "error"
    },
    {
      "inputs": [
        {
          "internalType": "bytes",
          "name": "name",
          "type": "bytes"
        }
      ],
      "name": "ResolverNotFound",
      "type": "error"
    },
    {
      "inputs": [
        {
          "internalType": "string",
          "name": "primary",
          "type": "string"
        },
        {
          "internalType": "bytes",
          "name": "primaryAddress",
          "type": "bytes"
        }
      ],
      "name": "ReverseAddressMismatch",
      "type": "error"
    },
    {
      "inputs": [
        {
          "internalType": "bytes4",
          "name": "selector",
          "type": "bytes4"
        }
      ],
      "name": "UnsupportedResolverProfile",
      "type": "error"
    },
    {
      "anonymous": false,
      "inputs": [
        {
          "indexed": true,
          "internalType": "address",
          "name": "previousOwner",
          "type": "address"
        },
        {
          "indexed": true,
          "internalType": "address",
          "name": "newOwner",
          "type": "address"
        }
      ],
      "name": "OwnershipTransferred",
      "type": "event"
    },
    {
      "inputs": [
        {
          "internalType": "uint256",
          "name": "",
          "type": "uint256"
        }
      ],
      "name": "batchGateways",
      "outputs": [
        {
          "internalType": "string",
          "name": "",
          "type": "string"
        }
      ],
      "stateMutability": "view",
      "type": "function"
    },
    {
      "inputs": [
        {
          "components": [
            {
              "components": [
                {
                  "internalType": "address",
                  "name": "target",
                  "type": "address"
                },
                {
                  "internalType": "bytes",
                  "name": "call",
                  "type": "bytes"
                },
                {
                  "internalType": "bytes",
                  "name": "data",
                  "type": "bytes"
                },
                {
                  "internalType": "uint256",
                  "name": "flags",
                  "type": "uint256"
                }
              ],
              "internalType": "struct CCIPBatcher.Lookup[]",
              "name": "lookups",
              "type": "tuple[]"
            },
            {
              "internalType": "string[]",
              "name": "gateways",
              "type": "string[]"
            }
          ],
          "internalType": "struct CCIPBatcher.Batch",
          "name": "batch",
          "type": "tuple"
        }
      ],
      "name": "ccipBatch",
      "outputs": [
        {
          "components": [
            {
              "components": [
                {
                  "internalType": "address",
                  "name": "target",
                  "type": "address"
                },
                {
                  "internalType": "bytes",
                  "name": "call",
                  "type": "bytes"
                },
                {
                  "internalType": "bytes",
                  "name": "data",
                  "type": "bytes"
                },
                {
                  "internalType": "uint256",
                  "name": "flags",
                  "type": "uint256"
                }
              ],
              "internalType": "struct CCIPBatcher.Lookup[]",
              "name": "lookups",
              "type": "tuple[]"
            },
            {
              "internalType": "string[]",
              "name": "gateways",
              "type": "string[]"
            }
          ],
          "internalType": "struct CCIPBatcher.Batch",
          "name": "",
          "type": "tuple"
        }
      ],
      "stateMutability": "view",
      "type": "function"
    },
    {
      "inputs": [
        {
          "internalType": "bytes",
          "name": "response",
          "type": "bytes"
        },
        {
          "internalType": "bytes",
          "name": "extraData",
          "type": "bytes"
        }
      ],
      "name": "ccipBatchCallback",
      "outputs": [
        {
          "components": [
            {
              "components": [
                {
                  "internalType": "address",
                  "name": "target",
                  "type": "address"
                },
                {
                  "internalType": "bytes",
                  "name": "call",
                  "type": "bytes"
                },
                {
                  "internalType": "bytes",
                  "name": "data",
                  "type": "bytes"
                },
                {
                  "internalType": "uint256",
                  "name": "flags",
                  "type": "uint256"
                }
              ],
              "internalType": "struct CCIPBatcher.Lookup[]",
              "name": "lookups",
              "type": "tuple[]"
            },
            {
              "internalType": "string[]",
              "name": "gateways",
              "type": "string[]"
            }
          ],
          "internalType": "struct CCIPBatcher.Batch",
          "name": "batch",
          "type": "tuple"
        }
      ],
      "stateMutability": "view",
      "type": "function"
    },
    {
      "inputs": [
        {
          "internalType": "bytes",
          "name": "response",
          "type": "bytes"
        },
        {
          "internalType": "bytes",
          "name": "extraData",
          "type": "bytes"
        }
      ],
      "name": "ccipReadCallback",
      "outputs": [],
      "stateMutability": "view",
      "type": "function"
    },
    {
      "inputs": [
        {
          "internalType": "bytes",
          "name": "name",
          "type": "bytes"
        }
      ],
      "name": "findResolver",
      "outputs": [
        {
          "internalType": "address",
          "name": "",
          "type": "address"
        },
        {
          "internalType": "bytes32",
          "name": "",
          "type": "bytes32"
        },
        {
          "internalType": "uint256",
          "name": "",
          "type": "uint256"
        }
      ],
      "stateMutability": "view",
      "type": "function"
    },
    {
      "inputs": [],
      "name": "owner",
      "outputs": [
        {
          "internalType": "address",
          "name": "",
          "type": "address"
        }
      ],
      "stateMutability": "view",
      "type": "function"
    },
    {
      "inputs": [],
      "name": "registry",
      "outputs": [
        {
          "internalType": "contract ENS",
          "name": "",
          "type": "address"
        }
      ],
      "stateMutability": "view",
      "type": "function"
    },
    {
      "inputs": [],
      "name": "renounceOwnership",
      "outputs": [],
      "stateMutability": "nonpayable",
      "type": "function"
    },
    {
      "inputs": [
        {
          "internalType": "bytes",
          "name": "name",
          "type": "bytes"
        }
      ],
      "name": "requireResolver",
      "outputs": [
        {
          "components": [
            {
              "internalType": "bytes",
              "name": "name",
              "type": "bytes"
            },
            {
              "internalType": "uint256",
              "name": "offset",
              "type": "uint256"
            },
            {
              "internalType": "bytes32",
              "name": "node",
              "type": "bytes32"
            },
            {
              "internalType": "address",
              "name": "resolver",
              "type": "address"
            },
            {
              "internalType": "bool",
              "name": "extended",
              "type": "bool"
            }
          ],
          "internalType": "struct UniversalResolver.ResolverInfo",
          "name": "info",
          "type": "tuple"
        }
      ],
      "stateMutability": "view",
      "type": "function"
    },
    {
      "inputs": [
        {
          "internalType": "bytes",
          "name": "name",
          "type": "bytes"
        },
        {
          "internalType": "bytes",
          "name": "data",
          "type": "bytes"
        }
      ],
      "name": "resolve",
      "outputs": [
        {
          "internalType": "bytes",
          "name": "",
          "type": "bytes"
        },
        {
          "internalType": "address",
          "name": "",
          "type": "address"
        }
      ],
      "stateMutability": "view",
      "type": "function"
    },
    {
      "inputs": [
        {
          "internalType": "bytes",
          "name": "response",
          "type": "bytes"
        },
        {
          "internalType": "bytes",
          "name": "extraData",
          "type": "bytes"
        }
      ],
      "name": "resolveBatchCallback",
      "outputs": [],
      "stateMutability": "view",
      "type": "function"
    },
    {
      "inputs": [
        {
          "components": [
            {
              "internalType": "bytes",
              "name": "name",
              "type": "bytes"
            },
            {
              "internalType": "uint256",
              "name": "offset",
              "type": "uint256"
            },
            {
              "internalType": "bytes32",
              "name": "node",
              "type": "bytes32"
            },
            {
              "internalType": "address",
              "name": "resolver",
              "type": "address"
            },
            {
              "internalType": "bool",
              "name": "extended",
              "type": "bool"
            }
          ],
          "internalType": "struct UniversalResolver.ResolverInfo",
          "name": "info",
          "type": "tuple"
        },
        {
          "components": [
            {
              "internalType": "address",
              "name": "target",
              "type": "address"
            },
            {
              "internalType": "bytes",
              "name": "call",
              "type": "bytes"
            },
            {
              "internalType": "bytes",
              "name": "data",
              "type": "bytes"
            },
            {
              "internalType": "uint256",
              "name": "flags",
              "type": "uint256"
            }
          ],
          "internalType": "struct CCIPBatcher.Lookup[]",
          "name": "lookups",
          "type": "tuple[]"
        },
        {
          "internalType": "bytes",
          "name": "extraData",
          "type": "bytes"
        }
      ],
      "name": "resolveCallback",
      "outputs": [
        {
          "internalType": "bytes",
          "name": "result",
          "type": "bytes"
        },
        {
          "internalType": "address",
          "name": "resolver",
          "type": "address"
        }
      ],
      "stateMutability": "pure",
      "type": "function"
    },
    {
      "inputs": [
        {
          "internalType": "bytes",
          "name": "name",
          "type": "bytes"
        },
        {
          "internalType": "bytes",
          "name": "data",
          "type": "bytes"
        },
        {
          "internalType": "string[]",
          "name": "gateways",
          "type": "string[]"
        }
      ],
      "name": "resolveWithGateways",
      "outputs": [
        {
          "internalType": "bytes",
          "name": "",
          "type": "bytes"
        },
        {
          "internalType": "address",
          "name": "",
          "type": "address"
        }
      ],
      "stateMutability": "view",
      "type": "function"
    },
    {
      "inputs": [
        {
          "internalType": "bytes",
          "name": "encodedAddress",
          "type": "bytes"
        },
        {
          "internalType": "uint256",
          "name": "coinType",
          "type": "uint256"
        }
      ],
      "name": "reverse",
      "outputs": [
        {
          "internalType": "string",
          "name": "",
          "type": "string"
        },
        {
          "internalType": "address",
          "name": "",
          "type": "address"
        },
        {
          "internalType": "address",
          "name": "",
          "type": "address"
        }
      ],
      "stateMutability": "view",
      "type": "function"
    },
    {
      "inputs": [
        {
          "components": [
            {
              "internalType": "bytes",
              "name": "name",
              "type": "bytes"
            },
            {
              "internalType": "uint256",
              "name": "offset",
              "type": "uint256"
            },
            {
              "internalType": "bytes32",
              "name": "node",
              "type": "bytes32"
            },
            {
              "internalType": "address",
              "name": "resolver",
              "type": "address"
            },
            {
              "internalType": "bool",
              "name": "extended",
              "type": "bool"
            }
          ],
          "internalType": "struct UniversalResolver.ResolverInfo",
          "name": "info",
          "type": "tuple"
        },
        {
          "components": [
            {
              "internalType": "address",
              "name": "target",
              "type": "address"
            },
            {
              "internalType": "bytes",
              "name": "call",
              "type": "bytes"
            },
            {
              "internalType": "bytes",
              "name": "data",
              "type": "bytes"
            },
            {
              "internalType": "uint256",
              "name": "flags",
              "type": "uint256"
            }
          ],
          "internalType": "struct CCIPBatcher.Lookup[]",
          "name": "lookups",
          "type": "tuple[]"
        },
        {
          "internalType": "bytes",
          "name": "extraData",
          "type": "bytes"
        }
      ],
      "name": "reverseAddressCallback",
      "outputs": [
        {
          "internalType": "string",
          "name": "primary",
          "type": "string"
        },
        {
          "internalType": "address",
          "name": "resolver",
          "type": "address"
        },
        {
          "internalType": "address",
          "name": "reverseResolver",
          "type": "address"
        }
      ],
      "stateMutability": "pure",
      "type": "function"
    },
    {
      "inputs": [
        {
          "components": [
            {
              "internalType": "bytes",
              "name": "name",
              "type": "bytes"
            },
            {
              "internalType": "uint256",
              "name": "offset",
              "type": "uint256"
            },
            {
              "internalType": "bytes32",
              "name": "node",
              "type": "bytes32"
            },
            {
              "internalType": "address",
              "name": "resolver",
              "type": "address"
            },
            {
              "internalType": "bool",
              "name": "extended",
              "type": "bool"
            }
          ],
          "internalType": "struct UniversalResolver.ResolverInfo",
          "name": "infoRev",
          "type": "tuple"
        },
        {
          "components": [
            {
              "internalType": "address",
              "name": "target",
              "type": "address"
            },
            {
              "internalType": "bytes",
              "name": "call",
              "type": "bytes"
            },
            {
              "internalType": "bytes",
              "name": "data",
              "type": "bytes"
            },
            {
              "internalType": "uint256",
              "name": "flags",
              "type": "uint256"
            }
          ],
          "internalType": "struct CCIPBatcher.Lookup[]",
          "name": "lookups",
          "type": "tuple[]"
        },
        {
          "internalType": "bytes",
          "name": "extraData",
          "type": "bytes"
        }
      ],
      "name": "reverseNameCallback",
      "outputs": [
        {
          "internalType": "string",
          "name": "primary",
          "type": "string"
        },
        {
          "internalType": "address",
          "name": "",
          "type": "address"
        },
        {
          "internalType": "address",
          "name": "",
          "type": "address"
        }
      ],
      "stateMutability": "view",
      "type": "function"
    },
    {
      "inputs": [
        {
          "internalType": "bytes",
          "name": "encodedAddress",
          "type": "bytes"
        },
        {
          "internalType": "uint256",
          "name": "coinType",
          "type": "uint256"
        },
        {
          "internalType": "string[]",
          "name": "gateways",
          "type": "string[]"
        }
      ],
      "name": "reverseWithGateways",
      "outputs": [
        {
          "internalType": "string",
          "name": "",
          "type": "string"
        },
        {
          "internalType": "address",
          "name": "",
          "type": "address"
        },
        {
          "internalType": "address",
          "name": "",
          "type": "address"
        }
      ],
      "stateMutability": "view",
      "type": "function"
    },
    {
      "inputs": [
        {
          "internalType": "string[]",
          "name": "gateways",
          "type": "string[]"
        }
      ],
      "name": "setBatchGateways",
      "outputs": [],
      "stateMutability": "nonpayable",
      "type": "function"
    },
    {
      "inputs": [
        {
          "internalType": "bytes4",
          "name": "interfaceID",
          "type": "bytes4"
        }
      ],
      "name": "supportsInterface",
      "outputs": [
        {
          "internalType": "bool",
          "name": "",
          "type": "bool"
        }
      ],
      "stateMutability": "view",
      "type": "function"
    },
    {
      "inputs": [
        {
          "internalType": "address",
          "name": "newOwner",
          "type": "address"
        }
      ],
      "name": "transferOwnership",
      "outputs": [],
      "stateMutability": "nonpayable",
      "type": "function"
    }
  ],
  "transactionHash": "0x42398c573bb29ef169287fd7a5efd24fc8805d427af0f0897e5e6da608599a3f",
  "args": [
    "0x4B10A480BDaC6cC27Be0e26F49c4fD3359Abba00",
    [
      "https://universal-offchain-unwrapper-v2.teknix5947.workers.dev/"
    ]
  ],
  "numDeployments": 1,
  "solcInputHash": "a1e1d5b66dfd83a1d0fa11e304175e2f",
  "bytecode": "0x60a06040523480156200001157600080fd5b506040516200468a3803806200468a8339810160408190526200003491620001da565b6200003f336200006a565b6001600160a01b038216608052805162000061906001906020840190620000ba565b5050506200049c565b600080546001600160a01b038381166001600160a01b0319831681178455604051919092169283917f8be0079c531659141344cd1fd0a4f28419497f9722a3daafe3b4186f6b6457e09190a35050565b82805482825590600052602060002090810192821562000105579160200282015b82811115620001055782518290620000f49082620003d0565b5091602001919060010190620000db565b506200011392915062000117565b5090565b80821115620001135760006200012e828262000138565b5060010162000117565b508054620001469062000341565b6000825580601f1062000157575050565b601f0160209004906000526020600020908101906200017791906200017a565b50565b5b808211156200011357600081556001016200017b565b634e487b7160e01b600052604160045260246000fd5b604051601f8201601f191681016001600160401b0381118282101715620001d257620001d262000191565b604052919050565b6000806040808486031215620001ef57600080fd5b83516001600160a01b03811681146200020757600080fd5b602085810151919450906001600160401b03808211156200022757600080fd5b8187019150601f88818401126200023d57600080fd5b82518281111562000252576200025262000191565b8060051b62000263868201620001a7565b918252848101860191868101908c8411156200027e57600080fd5b87870192505b838310156200032e578251868111156200029e5760008081fd5b8701603f81018e13620002b15760008081fd5b8881015187811115620002c857620002c862000191565b620002db818801601f19168b01620001a7565b8181528f8c838501011115620002f15760008081fd5b60005b8281101562000311578381018d01518282018d01528b01620002f4565b5060009181018b0191909152835250918701919087019062000284565b8099505050505050505050509250929050565b600181811c908216806200035657607f821691505b6020821081036200037757634e487b7160e01b600052602260045260246000fd5b50919050565b601f821115620003cb57600081815260208120601f850160051c81016020861015620003a65750805b601f850160051c820191505b81811015620003c757828155600101620003b2565b5050505b505050565b81516001600160401b03811115620003ec57620003ec62000191565b6200040481620003fd845462000341565b846200037d565b602080601f8311600181146200043c5760008415620004235750858301515b600019600386901b1c1916600185901b178555620003c7565b600085815260208120601f198616915b828110156200046d578886015182559484019460019091019084016200044c565b50858210156200048c5787850151600019600388901b60f8161c191681555b5050505050600190811b01905550565b6080516141cb620004bf600039600081816102100152611e3201526141cb6000f3fe608060405234801561001057600080fd5b506004361061016c5760003560e01c80639f28e99d116100cd578063b7d6ca6411610081578063d0d444a911610066578063d0d444a914610353578063ef46c0b814610366578063f2fde38b1461037957600080fd5b8063b7d6ca6414610320578063c285238a1461033357600080fd5b8063a1472844116100b2578063a1472844146102c2578063a1cbcbaf146102d5578063b536af761461030d57600080fd5b80639f28e99d1461028f578063a072a4fb146102af57600080fd5b8063715018a6116101245780638708f498116101095780638708f4981461024a5780638da5cb5b1461025d5780639061b9231461026e57600080fd5b8063715018a6146102035780637b1039991461020b57600080fd5b8063491fc4f911610155578063491fc4f9146101b95780635c016c16146101ce5780635d78a217146101e157600080fd5b806301ffc9a714610171578063039128c014610199575b600080fd5b61018461017f366004612abf565b61038c565b60405190151581526020015b60405180910390f35b6101ac6101a7366004612adc565b6103dc565b6040516101909190612b45565b6101cc6101c7366004612ba1565b610488565b005b6101cc6101dc366004612dcd565b6105a1565b6101f46101ef366004612e02565b6105c0565b60405161019093929190612e47565b6101cc6106af565b6102327f000000000000000000000000000000000000000000000000000000000000000081565b6040516001600160a01b039091168152602001610190565b6101f4610258366004612ed7565b6106c3565b6000546001600160a01b0316610232565b61028161027c366004612ba1565b6108ab565b604051610190929190612f65565b6102a261029d36600461304e565b61099a565b6040516101909190613230565b6102816102bd366004613272565b610ba1565b6102816102d0366004613307565b610d4e565b6102e86102e336600461339b565b610e71565b604080516001600160a01b039094168452602084019290925290820152606001610190565b6102a261031b366004612ba1565b610e8e565b6101f461032e3660046133d0565b61111d565b61034661034136600461339b565b6111df565b6040516101909190613491565b6101f4610361366004613272565b6112f6565b6101cc6103743660046134a4565b611495565b6101cc610387366004613508565b611517565b60007fcd191b34000000000000000000000000000000000000000000000000000000006001600160e01b0319831614806103d657506301ffc9a760e01b6001600160e01b03198316145b92915050565b600181815481106103ec57600080fd5b90600052602060002001600091509050805461040790613525565b80601f016020809104026020016040519081016040528092919081815260200182805461043390613525565b80156104805780601f1061045557610100808354040283529160200191610480565b820191906000526020600020905b81548152906001019060200180831161046357829003601f168201915b505050505081565b60006104968486018661304e565b9050600080806104a885870187613569565b9250925092508260800151156105425760005b845151811015610540576000856000015182815181106104dd576104dd613639565b602002602001015190506104fb816020015160448101510160240190565b60208201526060810151600e1660000361052d578060400151806020019051810190610527919061369c565b60408201525b5080610538816136e7565b9150506104bb565b505b61059730838587600001518560405160240161056093929190613700565b60408051601f198184030181529190526020810180516001600160e01b03166001600160e01b0319909316929092179091526115a7565b5050505050505050565b6105a96115c6565b80516105bc9060019060208401906129e9565b5050565b60606000806106a185856001805480602002602001604051908101604052809291908181526020016000905b8282101561069857838290600052602060002001805461060b90613525565b80601f016020809104026020016040519081016040528092919081815260200182805461063790613525565b80156106845780601f1061065957610100808354040283529160200191610684565b820191906000526020600020905b81548152906001019060200180831161066757829003601f168201915b5050505050815260200190600101906105ec565b5050505061111d565b9250925092505b9250925092565b6106b76115c6565b6106c16000611620565b565b60606000806000848060200190518101906106de91906137c3565b9050610716878760008181106106f6576106f6613639565b90506020028101906107089190613874565b61071190613894565b611688565b806020019051810190610729919061369c565b9350835160000361076457600061074660808a0160608b01613508565b604051806020016040528060008152509190935093509350506108a1565b600061077261034186611747565b905061089e81610852603c8560200151146107f357836040015185602001516040516024016107ab929190918252602082015260400190565b60408051601f198184030181529190526020810180516001600160e01b03167ff1cb7e06000000000000000000000000000000000000000000000000000000001790526118a1565b836040015160405160240161080a91815260200190565b60408051601f198184030181529190526020810180516001600160e01b03167f3b3b57de000000000000000000000000000000000000000000000000000000001790526118a1565b846040015163d0d444a960e01b86600001518a8f60600160208101906108789190613508565b60405160200161088a939291906138a0565b6040516020818303038152906040526118f3565b50505b9450945094915050565b6060600061098d868686866001805480602002602001604051908101604052809291908181526020016000905b828210156109845783829060005260206000200180546108f790613525565b80601f016020809104026020016040519081016040528092919081815260200182805461092390613525565b80156109705780601f1061094557610100808354040283529160200191610970565b820191906000526020600020905b81548152906001019060200180831161095357829003601f168201915b5050505050815260200190600101906108d8565b50505050610d4e565b9150915094509492505050565b604080518082019091526060808252602082015260005b825151811015610b93576000836000015182815181106109d3576109d3613639565b602002602001015190506020601017816060015116600003610a9b5760006109fe8260000151611af2565b610a09576010610a0c565b60205b9050825b855151811015610a985782600001516001600160a01b031686600001518281518110610a3e57610a3e613639565b6020026020010151600001516001600160a01b031603610a86578186600001518281518110610a6f57610a6f613639565b602002602001015160600181815117915081815250505b80610a90816136e7565b915050610a10565b50505b600060208260600151166000149050600080610ac1831585600001518660200151611b27565b915091508180610ad85750828015610ad857508051155b15610b395760608401805160401790528051600003610b34578360200151610aff906138df565b6040516001600160e01b0319909116602082015260240160408051601f19818403018152919052606085018051600817905290505b610b75565b630556f18360e41b610b4a826138df565b6001600160e01b03191603610b69576060840180516001179052610b75565b60608401805160421790525b60409093019290925250819050610b8b816136e7565b9150506109b1565b50610b9d82611ba0565b5090565b6060600080610bb284860186613913565b90508015610d185760008667ffffffffffffffff811115610bd557610bd5612c0d565b604051908082528060200260200182016040528015610c0857816020015b6060815260200190600190039081610bf35790505b50905060005b87811015610cef576000898983818110610c2a57610c2a613639565b9050602002810190610c3c9190613874565b610c4590613894565b90506008816060015116600003610cdc57898983818110610c6857610c68613639565b9050602002810190610c7a9190613874565b610c8890604081019061392e565b8080601f0160208091040260200160405190810160405280939291908181526020018383808284376000920191909152505085518692508591508110610cd057610cd0613639565b60200260200101819052505b5080610ce7816136e7565b915050610c0e565b5080604051602001610d019190613975565b604051602081830303815290604052935050610d31565b610d2e878760008181106106f6576106f6613639565b92505b610d416080890160608a01613508565b9150509550959350505050565b60606000807fac9650d800000000000000000000000000000000000000000000000000000000610d7e86886139d7565b6001600160e01b031916149050610e66610dcd89898080601f0160208091040260200160405190810160405280939291908181526020018383808284376000920191909152506111df92505050565b82610e1657610e1188888080601f0160208091040260200160405190810160405280939291908181526020018383808284376000920191909152506118a192505050565b610e30565b610e23876004818b613a07565b810190610e309190613ab1565b60408051851515602082015288917fa072a4fb00000000000000000000000000000000000000000000000000000000910161088a565b509550959350505050565b6000806000610e81846000611d9d565b9250925092509193909250565b6040805180820190915260608082526020820152600080610eb186880188613ae6565b915091508051825114610ed75760405163252e18f560e11b815260040160405180910390fd5b610ee38486018661304e565b92506000805b8451518110156110e757600085600001518281518110610f0b57610f0b613639565b6020026020010151905060408160600151166000036110d45783518310156110c8576000848481518110610f4157610f41613639565b60200260200101519050858481518110610f5d57610f5d613639565b602002602001015115610f7a5760608201805160441790526110c2565b6000610f898360400151611eda565b9050600081600001516001600160a01b03168260600151848460800151604051602401610fb7929190613b9c565b60408051601f198184030181529181526020820180516001600160e01b03166001600160e01b0319909416939093179092529051610ff59190613bc1565b600060405180830381855afa9150503d8060008114611030576040519150601f19603f3d011682016040523d82523d6000602084013e611035565b606091505b50935090508015611093576060840180516040179052825160000361108e5760608201516040516001600160e01b0319909116602082015260240160408051601f19818403018152919052606085018051600817905292505b6110bf565b630556f18360e41b6110a4846138df565b6001600160e01b031916146110bf5760608401805160421790525b50505b60408201525b6110d1836136e7565b92505b50806110df816136e7565b915050610ee9565b50815181146111095760405163252e18f560e11b815260040160405180910390fd5b61111284611ba0565b505050949350505050565b606060008060006111396103416111348989611f24565b611747565b90506111d5816111a1836040015160405160240161115991815260200190565b60408051601f198184030181529190526020810180516001600160e01b03167f691f3431000000000000000000000000000000000000000000000000000000001790526118a1565b87638708f49860e01b60405180606001604052808d81526020018c81526020018b81525060405160200161088a9190613bd3565b5093509350939050565b6040805160a081018252600060208201819052918101829052606081018290526080810182905282815290611215908390611d9d565b602084015260408301526001600160a01b0316606082018190526112575781604051630ee413fd60e31b815260040161124e9190612b45565b60405180910390fd5b61126c8160600151639061b92360e01b612027565b1561127d5760016080820152919050565b6020810151156112a25781604051630ee413fd60e31b815260040161124e9190612b45565b80606001516001600160a01b03163b6000036112f15760608101516040517f1e9535f200000000000000000000000000000000000000000000000000000000815261124e918491600401612f65565b919050565b60606000808261130885870187613c16565b909550925090506000611324898983816106f6576106f6613639565b9050606060008a8a600081811061133d5761133d613639565b905060200281019061134f9190613874565b61135d90602081019061392e565b611366916139d7565b90507fc4c4a822000000000000000000000000000000000000000000000000000000006001600160e01b03198216016113e8576000838060200190518101906113af9190613c8e565b6040516bffffffffffffffffffffffff19606083901b166020820152909150603401604051602081830303815290604052925050611430565b7f0e3481fa000000000000000000000000000000000000000000000000000000006001600160e01b0319821601611430578280602001905181019061142d919061369c565b91505b61143a84836120b0565b6114745786826040517fef9c03ce00000000000000000000000000000000000000000000000000000000815260040161124e929190613b9c565b61148460808d0160608e01613508565b955050505050955095509592505050565b6000818060200190518101906114ab9190613cb6565b9050611512816000015182602001518584604001516040516024016114d1929190613b9c565b60408051601f198184030181529190526020810180516001600160e01b03166001600160e01b031990931692909217909152606084015160808501516120d5565b505050565b61151f6115c6565b6001600160a01b03811661159b5760405162461bcd60e51b815260206004820152602660248201527f4f776e61626c653a206e6577206f776e657220697320746865207a65726f206160448201527f6464726573730000000000000000000000000000000000000000000000000000606482015260840161124e565b6115a481611620565b50565b6105bc8282600060e01b604051806020016040528060008152506120d5565b6000546001600160a01b031633146106c15760405162461bcd60e51b815260206004820181905260248201527f4f776e61626c653a2063616c6c6572206973206e6f7420746865206f776e6572604482015260640161124e565b600080546001600160a01b038381167fffffffffffffffffffffffff0000000000000000000000000000000000000000831681178455604051919092169283917f8be0079c531659141344cd1fd0a4f28419497f9722a3daafe3b4186f6b6457e09190a35050565b60408101516060820151600416156116a257805160208201fd5b60608201516002161561170b57637b1c461b60e01b6116c0826138df565b6001600160e01b031916036116d757805160208201fd5b806040517f95c0c75200000000000000000000000000000000000000000000000000000000815260040161124e9190612b45565b6060820151600816156112f157611721816138df565b604051637b1c461b60e01b81526001600160e01b0319909116600482015260240161124e565b80516060906000819003611771575050604080518082019091526001815260006020820152919050565b8060020167ffffffffffffffff81111561178d5761178d612c0d565b6040519080825280601f01601f1916602001820160405280156117b7576020820181803683370190505b509150602082018060005b8381101561185d5760008682815181106117de576117de613639565b01602001517fff00000000000000000000000000000000000000000000000000000000000000169050601760f91b81900361184a5761181d8484612289565b9350836000036118425786604051639a4c3e3b60e01b815260040161124e9190612b45565b839250611854565b6001830192508083525b506001016117c2565b506118688282612289565b91508160000361188d5784604051639a4c3e3b60e01b815260040161124e9190612b45565b60008253601f840182038452505050919050565b604080516001808252818301909252606091816020015b60608152602001906001900390816118b857905050905081816000815181106118e3576118e3613639565b6020026020010181905250919050565b60006040518060400160405280865167ffffffffffffffff81111561191a5761191a612c0d565b60405190808252806020026020018201604052801561197f57816020015b61196c604051806080016040528060006001600160a01b031681526020016060815260200160608152602001600081525090565b8152602001906001900390816119385790505b508152602001859052905060005b8551811015611a67576000826000015182815181106119ae576119ae613639565b602090810291909101015160608901516001600160a01b0316815260808901519091506119f4578682815181106119e7576119e7613639565b6020026020010151611a4f565b8760000151878381518110611a0b57611a0b613639565b6020026020010151604051602401611a24929190613b9c565b60408051601f198184030181529190526020810180516001600160e01b0316639061b92360e01b1790525b60209091015280611a5f816136e7565b91505061198d565b50611aea30306001600160a01b0316639f28e99d84604051602401611a8c9190613230565b604051602081830303815290604052915060e01b6020820180516001600160e01b03838183161783525050505063491fc4f960e01b898787604051602001611ad693929190613d7e565b6040516020818303038152906040526120d5565b505050505050565b6000306001600160a01b03831603611b0c57506001919050565b6113885a6000806000808786fa50815a909103109392505050565b60006060836001600160a01b031685611b425761c350611b44565b5a5b84604051611b529190613bc1565b6000604051808303818686fa925050503d8060008114611b8e576040519150601f19603f3d011682016040523d82523d6000602084013e611b93565b606091505b5090969095509350505050565b80515160009067ffffffffffffffff811115611bbe57611bbe612c0d565b604051908082528060200260200182016040528015611c1c57816020015b611c09604051806060016040528060006001600160a01b0316815260200160608152602001606081525090565b815260200190600190039081611bdc5790505b5090506000805b835151811015611cdd57600084600001518281518110611c4557611c45613639565b602002602001015190506040816060015116600003611cca576000611c6d8260400151611eda565b9050604051806060016040528082600001516001600160a01b03168152602001826020015181526020018260400151815250858580611cab906136e7565b965081518110611cbd57611cbd613639565b6020026020010181905250505b5080611cd5816136e7565b915050611c23565b5080156115125780825230836020015183604051602401611cfe9190613db3565b60408051601f19818403018152918152602080830180516001600160e01b03167fa780bab60000000000000000000000000000000000000000000000000000000017905290517fb536af760000000000000000000000000000000000000000000000000000000091611d7291899101613230565b60408051601f1981840301815290829052630556f18360e41b825261124e9594939291600401613e4d565b6000806000806000611daf87876122fe565b90925090508115611ed1576000806000611dc98a85611d9d565b9250925092508185604051602001611deb929190918252602082015260400190565b60408051808303601f190181529082905280516020909101207f0178b8bf0000000000000000000000000000000000000000000000000000000082526004820181905297507f00000000000000000000000000000000000000000000000000000000000000006001600160a01b031690630178b8bf90602401602060405180830381865afa158015611e81573d6000803e3d6000fd5b505050506040513d601f19601f82011682018060405250810190611ea59190613c8e565b97506001600160a01b038816611ebd57828782611ec1565b87878a5b97509750975050505050506106a8565b50509250925092565b6040805160a08101825260008082526060602083018190529282018390528282015260808101919091526103d6611f1f836004808651611f1a9190613eb1565b6124c8565b61254a565b60608251600003611f61576040517f7138356f00000000000000000000000000000000000000000000000000000000815260040160405180910390fd5b611f6a836125b6565b603c8314611fc85763800000008314611f8d57611f8883600161261f565b611fff565b6040518060400160405280600781526020017f64656661756c7400000000000000000000000000000000000000000000000000815250611fff565b6040518060400160405280600481526020017f61646472000000000000000000000000000000000000000000000000000000008152505b604051602001612010929190613ec4565b604051602081830303815290604052905092915050565b604080516001600160e01b03198316602480830191909152825180830390910181526044909101909152602080820180516001600160e01b03166301ffc9a760e01b178152825160009392849283928392918391908a617530fa92503d91506000519050828015612099575060208210155b80156120a55750600081115b979650505050505050565b6000815183511480156120ce57506120ce83600084600087516126f6565b9392505050565b6000806120eb6120e487611af2565b8787611b27565b91509150811580156121155750630556f18360e41b612109826138df565b6001600160e01b031916145b156121b557600061212582611eda565b9050866001600160a01b031681600001516001600160a01b0316036121b357308160200151826040015163ef46c0b860e01b6040518060a001604052808c6001600160a01b0316815260200186606001516001600160e01b0319168152602001866080015181526020018a6001600160e01b031916815260200189815250604051602001611d729190613f2a565b505b8180156121cb57506001600160e01b0319841615155b1561227357306001600160a01b03168482856040516024016121ee929190613b9c565b60408051601f198184030181529181526020820180516001600160e01b03166001600160e01b031990941693909317909252905161222c9190613bc1565b600060405180830381855afa9150503d8060008114612267576040519150601f19603f3d011682016040523d82523d6000602084013e61226c565b606091505b5090925090505b811561228157805160208201f35b805160208201fd5b6000806122968484613eb1565b905060ff8111156122d5578060018501206000526122c360008560026122bc9190613f9b565b6040612719565b605b6001850153605d60428501535060425b80156122f757808453806122ea856001613f9b565b6122f49190613f9b565b91505b5092915050565b60008083518310612324578360405163ba4adc2360e01b815260040161124e9190612b45565b60008484612331816136e7565b95508151811061234357612343613639565b016020015160f81c90506123578185613f9b565b9150845182111561237d578460405163ba4adc2360e01b815260040161124e9190612b45565b8060421480156123e5575084848151811061239a5761239a613639565b6020910101517fff00000000000000000000000000000000000000000000000000000000000000167f5b00000000000000000000000000000000000000000000000000000000000000145b80156124535750846123f8600184613eb1565b8151811061240857612408613639565b6020910101517fff00000000000000000000000000000000000000000000000000000000000000167f5d00000000000000000000000000000000000000000000000000000000000000145b156124af57600061247986612469876001613f9b565b612474600187613eb1565b612783565b9094509050801580612489575083155b156124a9578560405163ba4adc2360e01b815260040161124e9190612b45565b506124c0565b80156124c057806020858701012092505b509250929050565b82516060906124d78385613f9b565b11156124e257600080fd5b60008267ffffffffffffffff8111156124fd576124fd612c0d565b6040519080825280601f01601f191660200182016040528015612527576020820181803683370190505b5090506020808201908686010161253f8282876127e1565b509095945050505050565b6040805160a0810182526000808252606060208301819052928201839052828201526080810191909152818060200190518101906125889190613fae565b60808601526001600160e01b0319166060850152604084015260208301526001600160a01b03168152919050565b805160609060011b8067ffffffffffffffff8111156125d7576125d7612c0d565b6040519080825280601f01601f191660200182016040528015612601576020820181803683370190505b5091506020838101908301612617828285612719565b505050919050565b606082600060805b60088110612658576001811b83101561264b576126448183613f9b565b9150612650565b91821c915b60011c612627565b508380156126665750601082105b1561267957612676600482613f9b565b90505b600061268a600283901c6040613eb1565b90508067ffffffffffffffff8111156126a5576126a5612c0d565b6040519080825280601f01601f1916602001820160405280156126cf576020820181803683370190505b509350600086831b6000526020850190506126ec60008284612719565b5050505092915050565b6000612703848484612837565b61270e878785612837565b149695505050505050565b8181015b8083101561277d5783516101005b828510801561273a5750600081115b156127705760031901600f82821c16600a811061275a578060570161275f565b806030015b90508086535060019094019361272b565b505060208401935061271d565b50505050565b60008060406127928585613eb1565b111561279d57600080fd5b6000806127ab87878761285b565b91509150806127c35750600092508291506127d99050565b50602001516004858503604003021c9150600190505b935093915050565b6020811061281957815183526127f8602084613f9b565b9250612805602083613f9b565b9150612812602082613eb1565b90506127e1565b905182516020929092036101000a6000190180199091169116179052565b82516000906128468385613f9b565b111561285157600080fd5b5091016020012090565b606060008061286a8585613eb1565b9050612877600282614067565b6001036128c65760405162461bcd60e51b815260206004820152601560248201527f496e76616c696420737472696e67206c656e6774680000000000000000000000604482015260640161124e565b6128d160028261407b565b67ffffffffffffffff8111156128e9576128e9612c0d565b6040519080825280601f01601f191660200182016040528015612913576020820181803683370190505b50925060019150855184111561292857600080fd5b612979565b6000603a8210602f831116156129455750602f190190565b6047821060408311161561295b57506036190190565b6067821060608311161561297157506056190190565b5060ff919050565b60208601855b858110156129de576129968183015160001a61292d565b6129a86001830184015160001a61292d565b60ff811460ff831417156129c1576000955050506129de565b60049190911b17806002898403048701602001535060020161297f565b505050935093915050565b828054828255906000526020600020908101928215612a2f579160200282015b82811115612a2f5782518290612a1f90826140d5565b5091602001919060010190612a09565b50610b9d9291505b80821115610b9d576000612a4b8282612a54565b50600101612a37565b508054612a6090613525565b6000825580601f10612a70575050565b601f0160209004906000526020600020908101906115a491905b80821115610b9d5760008155600101612a8a565b6001600160e01b0319811681146115a457600080fd5b80356112f181612a9e565b600060208284031215612ad157600080fd5b81356120ce81612a9e565b600060208284031215612aee57600080fd5b5035919050565b60005b83811015612b10578181015183820152602001612af8565b50506000910152565b60008151808452612b31816020860160208601612af5565b601f01601f19169290920160200192915050565b6020815260006120ce6020830184612b19565b60008083601f840112612b6a57600080fd5b50813567ffffffffffffffff811115612b8257600080fd5b602083019150836020828501011115612b9a57600080fd5b9250929050565b60008060008060408587031215612bb757600080fd5b843567ffffffffffffffff80821115612bcf57600080fd5b612bdb88838901612b58565b90965094506020870135915080821115612bf457600080fd5b50612c0187828801612b58565b95989497509550505050565b634e487b7160e01b600052604160045260246000fd5b6040805190810167ffffffffffffffff81118282101715612c4657612c46612c0d565b60405290565b60405160a0810167ffffffffffffffff81118282101715612c4657612c46612c0d565b604051601f8201601f1916810167ffffffffffffffff81118282101715612c9857612c98612c0d565b604052919050565b600067ffffffffffffffff821115612cba57612cba612c0d565b5060051b60200190565b600067ffffffffffffffff821115612cde57612cde612c0d565b50601f01601f191660200190565b600082601f830112612cfd57600080fd5b8135612d10612d0b82612cc4565b612c6f565b818152846020838601011115612d2557600080fd5b816020850160208301376000918101602001919091529392505050565b600082601f830112612d5357600080fd5b81356020612d63612d0b83612ca0565b82815260059290921b84018101918181019086841115612d8257600080fd5b8286015b84811015612dc257803567ffffffffffffffff811115612da65760008081fd5b612db48986838b0101612cec565b845250918301918301612d86565b509695505050505050565b600060208284031215612ddf57600080fd5b813567ffffffffffffffff811115612df657600080fd5b6122f484828501612d42565b60008060408385031215612e1557600080fd5b823567ffffffffffffffff811115612e2c57600080fd5b612e3885828601612cec565b95602094909401359450505050565b606081526000612e5a6060830186612b19565b6001600160a01b0394851660208401529290931660409091015292915050565b600060a08284031215612e8c57600080fd5b50919050565b60008083601f840112612ea457600080fd5b50813567ffffffffffffffff811115612ebc57600080fd5b6020830191508360208260051b8501011115612b9a57600080fd5b60008060008060608587031215612eed57600080fd5b843567ffffffffffffffff80821115612f0557600080fd5b612f1188838901612e7a565b95506020870135915080821115612f2757600080fd5b612f3388838901612e92565b90955093506040870135915080821115612f4c57600080fd5b50612f5987828801612cec565b91505092959194509250565b604081526000612f786040830185612b19565b90506001600160a01b03831660208301529392505050565b6001600160a01b03811681146115a457600080fd5b600060808284031215612fb757600080fd5b6040516080810167ffffffffffffffff8282108183111715612fdb57612fdb612c0d565b8160405282935084359150612fef82612f90565b9082526020840135908082111561300557600080fd5b61301186838701612cec565b6020840152604085013591508082111561302a57600080fd5b5061303785828601612cec565b604083015250606083013560608201525092915050565b6000602080838503121561306157600080fd5b823567ffffffffffffffff8082111561307957600080fd5b908401906040828703121561308d57600080fd5b613095612c23565b8235828111156130a457600080fd5b8301601f810188136130b557600080fd5b80356130c3612d0b82612ca0565b81815260059190911b8201860190868101908a8311156130e257600080fd5b8784015b8381101561311a578035878111156130fe5760008081fd5b61310c8d8b83890101612fa5565b8452509188019188016130e6565b508452505050828401358281111561313157600080fd5b61313d88828601612d42565b948201949094529695505050505050565b600081518084526020808501808196508360051b8101915082860160005b858110156131db578284038952815160806001600160a01b03825116865286820151818888015261319f82880182612b19565b915050604080830151878303828901526131b98382612b19565b606094850151989094019790975250509885019893509084019060010161316c565b5091979650505050505050565b600081518084526020808501808196508360051b8101915082860160005b858110156131db57828403895261321e848351612b19565b98850198935090840190600101613206565b60208152600082516040602084015261324c606084018261314e565b90506020840151601f1984830301604085015261326982826131e8565b95945050505050565b60008060008060006060868803121561328a57600080fd5b853567ffffffffffffffff808211156132a257600080fd5b6132ae89838a01612e7a565b965060208801359150808211156132c457600080fd5b6132d089838a01612e92565b909650945060408801359150808211156132e957600080fd5b506132f688828901612b58565b969995985093965092949392505050565b60008060008060006060868803121561331f57600080fd5b853567ffffffffffffffff8082111561333757600080fd5b61334389838a01612b58565b9097509550602088013591508082111561335c57600080fd5b61336889838a01612b58565b9095509350604088013591508082111561338157600080fd5b5061338e88828901612d42565b9150509295509295909350565b6000602082840312156133ad57600080fd5b813567ffffffffffffffff8111156133c457600080fd5b6122f484828501612cec565b6000806000606084860312156133e557600080fd5b833567ffffffffffffffff808211156133fd57600080fd5b61340987838801612cec565b945060208601359350604086013591508082111561342657600080fd5b5061343386828701612d42565b9150509250925092565b6000815160a0845261345260a0850182612b19565b905060208301516020850152604083015160408501526001600160a01b0360608401511660608501526080830151151560808501528091505092915050565b6020815260006120ce602083018461343d565b600080604083850312156134b757600080fd5b823567ffffffffffffffff808211156134cf57600080fd5b6134db86838701612cec565b935060208501359150808211156134f157600080fd5b506134fe85828601612cec565b9150509250929050565b60006020828403121561351a57600080fd5b81356120ce81612f90565b600181811c9082168061353957607f821691505b602082108103612e8c57634e487b7160e01b600052602260045260246000fd5b803580151581146112f157600080fd5b60008060006060848603121561357e57600080fd5b833567ffffffffffffffff8082111561359657600080fd5b9085019060a082880312156135aa57600080fd5b6135b2612c4c565b8235828111156135c157600080fd5b6135cd89828601612cec565b825250602083013560208201526040830135604082015260608301356135f281612f90565b606082015261360360808401613559565b6080820152945061361660208701612ab4565b9350604086013591508082111561362c57600080fd5b5061343386828701612cec565b634e487b7160e01b600052603260045260246000fd5b600082601f83011261366057600080fd5b815161366e612d0b82612cc4565b81815284602083860101111561368357600080fd5b613694826020830160208701612af5565b949350505050565b6000602082840312156136ae57600080fd5b815167ffffffffffffffff8111156136c557600080fd5b6122f48482850161364f565b634e487b7160e01b600052601160045260246000fd5b6000600182016136f9576136f96136d1565b5060010190565b606081526000613713606083018661343d565b8281036020840152613725818661314e565b905082810360408401526137398185612b19565b9695505050505050565b600082601f83011261375457600080fd5b81516020613764612d0b83612ca0565b82815260059290921b8401810191818101908684111561378357600080fd5b8286015b84811015612dc257805167ffffffffffffffff8111156137a75760008081fd5b6137b58986838b010161364f565b845250918301918301613787565b6000602082840312156137d557600080fd5b815167ffffffffffffffff808211156137ed57600080fd5b908301906060828603121561380157600080fd5b60405160608101818110838211171561381c5761381c612c0d565b60405282518281111561382e57600080fd5b61383a8782860161364f565b8252506020830151602082015260408301518281111561385957600080fd5b61386587828601613743565b60408301525095945050505050565b60008235607e1983360301811261388a57600080fd5b9190910192915050565b60006103d63683612fa5565b6060815260006138b36060830186612b19565b82810360208401526138c58186612b19565b9150506001600160a01b0383166040830152949350505050565b6000815160208301516001600160e01b0319808216935060048310156126175760049290920360031b82901b161692915050565b60006020828403121561392557600080fd5b6120ce82613559565b6000808335601e1984360301811261394557600080fd5b83018035915067ffffffffffffffff82111561396057600080fd5b602001915036819003821315612b9a57600080fd5b6000602080830181845280855180835260408601915060408160051b870101925083870160005b828110156139ca57603f198886030184526139b8858351612b19565b9450928501929085019060010161399c565b5092979650505050505050565b6001600160e01b031981358181169160048510156139ff5780818660040360031b1b83161692505b505092915050565b60008085851115613a1757600080fd5b83861115613a2457600080fd5b5050820193919092039150565b600082601f830112613a4257600080fd5b81356020613a52612d0b83612ca0565b82815260059290921b84018101918181019086841115613a7157600080fd5b8286015b84811015612dc257803567ffffffffffffffff811115613a955760008081fd5b613aa38986838b0101612cec565b845250918301918301613a75565b600060208284031215613ac357600080fd5b813567ffffffffffffffff811115613ada57600080fd5b6122f484828501613a31565b60008060408385031215613af957600080fd5b823567ffffffffffffffff80821115613b1157600080fd5b818501915085601f830112613b2557600080fd5b81356020613b35612d0b83612ca0565b82815260059290921b84018101918181019089841115613b5457600080fd5b948201945b83861015613b7957613b6a86613559565b82529482019490820190613b59565b96505086013592505080821115613b8f57600080fd5b506134fe85828601613a31565b604081526000613baf6040830185612b19565b82810360208401526132698185612b19565b6000825161388a818460208701612af5565b602081526000825160606020840152613bef6080840182612b19565b9050602084015160408401526040840151601f1984830301606085015261326982826131e8565b600080600060608486031215613c2b57600080fd5b833567ffffffffffffffff80821115613c4357600080fd5b613c4f87838801612cec565b94506020860135915080821115613c6557600080fd5b50613c7286828701612cec565b9250506040840135613c8381612f90565b809150509250925092565b600060208284031215613ca057600080fd5b81516120ce81612f90565b80516112f181612a9e565b600060208284031215613cc857600080fd5b815167ffffffffffffffff80821115613ce057600080fd5b9083019060a08286031215613cf457600080fd5b613cfc612c4c565b8251613d0781612f90565b81526020830151613d1781612a9e565b6020820152604083015182811115613d2e57600080fd5b613d3a8782860161364f565b604083015250613d4c60608401613cab565b6060820152608083015182811115613d6357600080fd5b613d6f8782860161364f565b60808301525095945050505050565b606081526000613d91606083018661343d565b6001600160e01b03198516602084015282810360408401526137398185612b19565b60006020808301818452808551808352604092508286019150828160051b87010184880160005b83811015613e3f57603f19898403018552815160606001600160a01b03825116855288820151818a870152613e11828701826131e8565b91505087820151915084810388860152613e2b8183612b19565b968901969450505090860190600101613dda565b509098975050505050505050565b6001600160a01b038616815260a060208201526000613e6f60a08301876131e8565b8281036040840152613e818187612b19565b90506001600160e01b0319851660608401528281036080840152613ea58185612b19565b98975050505050505050565b818103818111156103d6576103d66136d1565b60008351613ed6818460208801612af5565b601760f91b9083019081528351613ef4816001840160208801612af5565b7f2e7265766572736500000000000000000000000000000000000000000000000060019290910191820152600901949350505050565b602081526001600160a01b038251166020820152600060208301516001600160e01b031980821660408501526040850151915060a06060850152613f7160c0850183612b19565b9150806060860151166080850152506080840151601f198483030160a08501526132698282612b19565b808201808211156103d6576103d66136d1565b600080600080600060a08688031215613fc657600080fd5b8551613fd181612f90565b602087015190955067ffffffffffffffff80821115613fef57600080fd5b613ffb89838a01613743565b9550604088015191508082111561401157600080fd5b61401d89838a0161364f565b94506060880151915061402f82612a9e565b60808801519193508082111561404457600080fd5b5061338e8882890161364f565b634e487b7160e01b600052601260045260246000fd5b60008261407657614076614051565b500690565b60008261408a5761408a614051565b500490565b601f82111561151257600081815260208120601f850160051c810160208610156140b65750805b601f850160051c820191505b81811015611aea578281556001016140c2565b815167ffffffffffffffff8111156140ef576140ef612c0d565b614103816140fd8454613525565b8461408f565b602080601f83116001811461413857600084156141205750858301515b600019600386901b1c1916600185901b178555611aea565b600085815260208120601f198616915b8281101561416757888601518255948401946001909101908401614148565b50858210156141855787850151600019600388901b60f8161c191681555b5050505050600190811b0190555056fea2646970667358221220d1edf3d8478d77f0b72688b3aff726580dc3285c7c6e9442da740a49fecce6ee64736f6c63430008110033",
  "devdoc": {
    "errors": {
      "DNSDecodingFailed(bytes)": [
        {
          "details": "The DNS-encoded name is malformed."
        }
      ],
      "DNSEncodingFailed(string)": [
        {
          "details": "A label of the ENS name has an invalid size."
        }
      ],
      "EmptyAddress()": [
        {
          "details": "The supplied address was `0x`."
        }
      ],
      "HttpError(uint16,string)": [
        {
          "details": "Error selector: `0x01800152`"
        }
      ],
      "InvalidBatchGatewayResponse()": [
        {
          "details": "The batch gateway supplied an incorrect number of responses."
        }
      ],
      "OffchainLookup(address,string[],bytes,bytes4,bytes)": [
        {
          "details": "https://eips.ethereum.org/EIPS/eip-3668 Error selector: `0x556f1830`"
        }
      ],
      "ResolverError(bytes)": [
        {
          "details": "Error selector: `0x95c0c752`"
        }
      ],
      "ResolverNotContract(bytes,address)": [
        {
          "details": "Error selector: `0x1e9535f2`"
        }
      ],
      "ResolverNotFound(bytes)": [
        {
          "details": "Error selector: `0x77209fe8`"
        }
      ],
      "ReverseAddressMismatch(string,bytes)": [
        {
          "details": "Error selector: `0xef9c03ce`"
        }
      ],
      "UnsupportedResolverProfile(bytes4)": [
        {
          "details": "Error selector: `0x7b1c461b`"
        }
      ]
    },
    "kind": "dev",
    "methods": {
      "ccipBatch(((address,bytes,bytes,uint256)[],string[]))": {
        "details": "Use `CCIPReader.ccipRead()` to call this function with a batch.      The callback `response` will be `abi.encode(batch)`."
      },
      "ccipBatchCallback(bytes,bytes)": {
        "details": "CCIP-Read callback for `ccipBatch()`.      Updates `batch` using the batch gateway response. Reverts again if not \"done\".",
        "params": {
          "extraData": "The contextual data passed from `ccipBatch()`.",
          "response": "The response from the batch gateway."
        },
        "returns": {
          "batch": "The batch where every lookup is \"done\"."
        }
      },
      "ccipReadCallback(bytes,bytes)": {
        "details": "CCIP-Read callback for `ccipRead()`.The return type of this function is polymorphic depending on the caller.",
        "params": {
          "extraData": "The contextual data passed from `ccipRead()`.",
          "response": "The response from offchain."
        }
      },
      "findResolver(bytes)": {
        "details": "Find the resolver address for `name`.      Does not perform any validity checks.",
        "params": {
          "name": "The name to search."
        }
      },
      "owner()": {
        "details": "Returns the address of the current owner."
      },
      "renounceOwnership()": {
        "details": "Leaves the contract without owner. It will not be possible to call `onlyOwner` functions. Can only be called by the current owner. NOTE: Renouncing ownership will leave the contract without an owner, thereby disabling any functionality that is only available to the owner."
      },
      "requireResolver(bytes)": {
        "details": "Returns a valid resolver for `name` or reverts.",
        "params": {
          "name": "The name to search."
        },
        "returns": {
          "info": "The resolver information."
        }
      },
      "resolveBatchCallback(bytes,bytes)": {
        "details": "CCIP-Read callback for `_resolveBatch()`.",
        "params": {
          "extraData": "The contextual data from `_resolveBatch()`.",
          "response": "The response data from `CCIPBatcher`."
        }
      },
      "resolveCallback((bytes,uint256,bytes32,address,bool),(address,bytes,bytes,uint256)[],bytes)": {
        "details": "CCIP-Read callback for `resolveWithGateways()` (step 2 of 2).",
        "params": {
          "extraData": "The contextual data passed from `resolveWithGateways()`.",
          "info": "The resolver that was called.",
          "lookups": "The lookups corresponding to the requested call."
        },
        "returns": {
          "resolver": "The address of the resolver that supplied `result`.",
          "result": "The encoded response for the requested call."
        }
      },
      "resolveWithGateways(bytes,bytes,string[])": {
        "details": "This function executes over multiple steps (step 1 of 2).",
        "returns": {
          "_0": "result The encoded response for the requested call.",
          "_1": "resolver The address of the resolver that supplied `result`."
        }
      },
      "reverseAddressCallback((bytes,uint256,bytes32,address,bool),(address,bytes,bytes,uint256)[],bytes)": {
        "details": "CCIP-Read callback for `reverseNameCallback()` (step 3 of 3).      Reverts `ReverseAddressMismatch`.",
        "params": {
          "extraData": "The contextual data passed from `reverseNameCallback()`.",
          "info": "The resolver for the primary name that was called.",
          "lookups": "The lookups corresponding to the calls: `[addr()]`."
        },
        "returns": {
          "primary": "The resolved primary name.",
          "resolver": "The resolver address for primary name.",
          "reverseResolver": "The resolver address for the reverse name."
        }
      },
      "reverseNameCallback((bytes,uint256,bytes32,address,bool),(address,bytes,bytes,uint256)[],bytes)": {
        "details": "CCIP-Read callback for `reverseWithGateways()` (step 2 of 3).",
        "params": {
          "extraData": "The contextual data passed from `reverseWithGateways()`.",
          "infoRev": "The resolver for the reverse name that was called.",
          "lookups": "The lookups corresponding to the calls: `[name()]`."
        }
      },
      "reverseWithGateways(bytes,uint256,string[])": {
        "details": "This function executes over multiple steps (step 1 of 3).",
        "params": {
          "coinType": "The coin type.",
          "encodedAddress": "The input address.",
          "gateways": "The list of batch gateway URLs to use."
        }
      },
      "setBatchGateways(string[])": {
        "details": "Set the default batch gateways, see: `resolve()` and `reverse()`.",
        "params": {
          "gateways": "The list of batch gateway URLs to use as default."
        }
      },
      "supportsInterface(bytes4)": {
        "details": "See {IERC165-supportsInterface}."
      },
      "transferOwnership(address)": {
        "details": "Transfers ownership of the contract to a new account (`newOwner`). Can only be called by the current owner."
      }
    },
    "version": 1
  },
  "userdoc": {
    "errors": {
      "HttpError(uint16,string)": [
        {
          "notice": "An HTTP error occurred on a resolving gateway."
        }
      ],
      "ResolverError(bytes)": [
        {
          "notice": "The resolver returned an error."
        }
      ],
      "ResolverNotContract(bytes,address)": [
        {
          "notice": "The resolver is not a contract."
        }
      ],
      "ResolverNotFound(bytes)": [
        {
          "notice": "A resolver could not be found for the supplied name."
        }
      ],
      "ReverseAddressMismatch(string,bytes)": [
        {
          "notice": "The resolved address from reverse resolution does not match the supplied address."
        }
      ],
      "UnsupportedResolverProfile(bytes4)": [
        {
          "notice": "The resolver did not respond."
        }
      ]
    },
    "kind": "user",
    "methods": {
      "resolve(bytes,bytes)": {
        "notice": "Same as `resolveWithGateways()` but uses default batch gateways."
      },
      "resolveWithGateways(bytes,bytes,string[])": {
        "notice": "Performs ENS name resolution for the supplied name and resolution data.Callers should enable EIP-3668."
      },
      "reverse(bytes,uint256)": {
        "notice": "Same as `reverseWithGateways()` but uses default batch gateways."
      },
      "reverseWithGateways(bytes,uint256,string[])": {
        "notice": "Performs ENS reverse resolution for the supplied address and coin type.Callers should enable EIP-3668."
      }
    },
    "version": 1
  },
  "storageLayout": {
    "storage": [
      {
        "astId": 444,
        "contract": "contracts/universalResolver/UniversalResolver.sol:UniversalResolver",
        "label": "_owner",
        "offset": 0,
        "slot": "0",
        "type": "t_address"
      },
      {
        "astId": 21408,
        "contract": "contracts/universalResolver/UniversalResolver.sol:UniversalResolver",
        "label": "batchGateways",
        "offset": 0,
        "slot": "1",
        "type": "t_array(t_string_storage)dyn_storage"
      }
    ],
    "types": {
      "t_address": {
        "encoding": "inplace",
        "label": "address",
        "numberOfBytes": "20"
      },
      "t_array(t_string_storage)dyn_storage": {
        "base": "t_string_storage",
        "encoding": "dynamic_array",
        "label": "string[]",
        "numberOfBytes": "32"
      },
      "t_string_storage": {
        "encoding": "bytes",
        "label": "string",
        "numberOfBytes": "32"
      }
    }
  }
}